{
  "_format": "hh-sol-artifact-1",
  "contractName": "ERC721Wrapper",
  "sourceName": "contracts/ERC721TokenWrapper.sol",
  "abi": [
    {
      "inputs": [
        {
          "internalType": "contract IERC721URIStorage",
          "name": "underlyingERC721_",
          "type": "address"
        },
        {
          "internalType": "string",
          "name": "name_",
          "type": "string"
        },
        {
          "internalType": "string",
          "name": "symbol_",
          "type": "string"
        }
      ],
      "stateMutability": "nonpayable",
      "type": "constructor"
    },
    {
      "anonymous": false,
      "inputs": [
        {
          "indexed": true,
          "internalType": "address",
          "name": "owner",
          "type": "address"
        },
        {
          "indexed": true,
          "internalType": "address",
          "name": "approved",
          "type": "address"
        },
        {
          "indexed": true,
          "internalType": "uint256",
          "name": "tokenId",
          "type": "uint256"
        }
      ],
      "name": "Approval",
      "type": "event"
    },
    {
      "anonymous": false,
      "inputs": [
        {
          "indexed": true,
          "internalType": "address",
          "name": "owner",
          "type": "address"
        },
        {
          "indexed": true,
          "internalType": "address",
          "name": "operator",
          "type": "address"
        },
        {
          "indexed": false,
          "internalType": "bool",
          "name": "approved",
          "type": "bool"
        }
      ],
      "name": "ApprovalForAll",
      "type": "event"
    },
    {
      "anonymous": false,
      "inputs": [
        {
          "indexed": true,
          "internalType": "address",
          "name": "user",
          "type": "address"
        },
        {
          "indexed": false,
          "internalType": "uint256",
          "name": "tokenId",
          "type": "uint256"
        }
      ],
      "name": "Deposit",
      "type": "event"
    },
    {
      "anonymous": false,
      "inputs": [
        {
          "indexed": true,
          "internalType": "address",
          "name": "from",
          "type": "address"
        },
        {
          "indexed": true,
          "internalType": "address",
          "name": "to",
          "type": "address"
        },
        {
          "indexed": true,
          "internalType": "uint256",
          "name": "tokenId",
          "type": "uint256"
        }
      ],
      "name": "Transfer",
      "type": "event"
    },
    {
      "anonymous": false,
      "inputs": [
        {
          "indexed": true,
          "internalType": "address",
          "name": "user",
          "type": "address"
        },
        {
          "indexed": false,
          "internalType": "uint256",
          "name": "tokenId",
          "type": "uint256"
        }
      ],
      "name": "Withdrawal",
      "type": "event"
    },
    {
      "inputs": [
        {
          "internalType": "address",
          "name": "to",
          "type": "address"
        },
        {
          "internalType": "uint256",
          "name": "tokenId",
          "type": "uint256"
        }
      ],
      "name": "approve",
      "outputs": [],
      "stateMutability": "nonpayable",
      "type": "function"
    },
    {
      "inputs": [
        {
          "internalType": "address",
          "name": "owner",
          "type": "address"
        }
      ],
      "name": "balanceOf",
      "outputs": [
        {
          "internalType": "uint256",
          "name": "",
          "type": "uint256"
        }
      ],
      "stateMutability": "view",
      "type": "function"
    },
    {
      "inputs": [
        {
          "internalType": "uint256",
          "name": "tokenId",
          "type": "uint256"
        },
        {
          "internalType": "address",
          "name": "_owner",
          "type": "address"
        },
        {
          "internalType": "address",
          "name": "_renter",
          "type": "address"
        }
      ],
      "name": "deposit",
      "outputs": [],
      "stateMutability": "nonpayable",
      "type": "function"
    },
    {
      "inputs": [
        {
          "internalType": "uint256",
          "name": "tokenId",
          "type": "uint256"
        }
      ],
      "name": "getApproved",
      "outputs": [
        {
          "internalType": "address",
          "name": "",
          "type": "address"
        }
      ],
      "stateMutability": "view",
      "type": "function"
    },
    {
      "inputs": [
        {
          "internalType": "address",
          "name": "owner",
          "type": "address"
        },
        {
          "internalType": "address",
          "name": "operator",
          "type": "address"
        }
      ],
      "name": "isApprovedForAll",
      "outputs": [
        {
          "internalType": "bool",
          "name": "",
          "type": "bool"
        }
      ],
      "stateMutability": "view",
      "type": "function"
    },
    {
      "inputs": [],
      "name": "name",
      "outputs": [
        {
          "internalType": "string",
          "name": "",
          "type": "string"
        }
      ],
      "stateMutability": "view",
      "type": "function"
    },
    {
      "inputs": [
        {
          "internalType": "address",
          "name": "operator",
          "type": "address"
        },
        {
          "internalType": "address",
          "name": "from",
          "type": "address"
        },
        {
          "internalType": "uint256",
          "name": "tokenId",
          "type": "uint256"
        },
        {
          "internalType": "bytes",
          "name": "data",
          "type": "bytes"
        }
      ],
      "name": "onERC721Received",
      "outputs": [
        {
          "internalType": "bytes4",
          "name": "",
          "type": "bytes4"
        }
      ],
      "stateMutability": "nonpayable",
      "type": "function"
    },
    {
      "inputs": [
        {
          "internalType": "uint256",
          "name": "tokenId",
          "type": "uint256"
        }
      ],
      "name": "ownerOf",
      "outputs": [
        {
          "internalType": "address",
          "name": "",
          "type": "address"
        }
      ],
      "stateMutability": "view",
      "type": "function"
    },
    {
      "inputs": [
        {
          "internalType": "address",
          "name": "from",
          "type": "address"
        },
        {
          "internalType": "address",
          "name": "to",
          "type": "address"
        },
        {
          "internalType": "uint256",
          "name": "tokenId",
          "type": "uint256"
        }
      ],
      "name": "safeTransferFrom",
      "outputs": [],
      "stateMutability": "nonpayable",
      "type": "function"
    },
    {
      "inputs": [
        {
          "internalType": "address",
          "name": "from",
          "type": "address"
        },
        {
          "internalType": "address",
          "name": "to",
          "type": "address"
        },
        {
          "internalType": "uint256",
          "name": "tokenId",
          "type": "uint256"
        },
        {
          "internalType": "bytes",
          "name": "_data",
          "type": "bytes"
        }
      ],
      "name": "safeTransferFrom",
      "outputs": [],
      "stateMutability": "nonpayable",
      "type": "function"
    },
    {
      "inputs": [
        {
          "internalType": "address",
          "name": "operator",
          "type": "address"
        },
        {
          "internalType": "bool",
          "name": "approved",
          "type": "bool"
        }
      ],
      "name": "setApprovalForAll",
      "outputs": [],
      "stateMutability": "nonpayable",
      "type": "function"
    },
    {
      "inputs": [
        {
          "internalType": "bytes4",
          "name": "interfaceId",
          "type": "bytes4"
        }
      ],
      "name": "supportsInterface",
      "outputs": [
        {
          "internalType": "bool",
          "name": "",
          "type": "bool"
        }
      ],
      "stateMutability": "view",
      "type": "function"
    },
    {
      "inputs": [],
      "name": "symbol",
      "outputs": [
        {
          "internalType": "string",
          "name": "",
          "type": "string"
        }
      ],
      "stateMutability": "view",
      "type": "function"
    },
    {
      "inputs": [
        {
          "internalType": "uint256",
          "name": "index",
          "type": "uint256"
        }
      ],
      "name": "tokenByIndex",
      "outputs": [
        {
          "internalType": "uint256",
          "name": "",
          "type": "uint256"
        }
      ],
      "stateMutability": "view",
      "type": "function"
    },
    {
      "inputs": [
        {
          "internalType": "address",
          "name": "owner",
          "type": "address"
        },
        {
          "internalType": "uint256",
          "name": "index",
          "type": "uint256"
        }
      ],
      "name": "tokenOfOwnerByIndex",
      "outputs": [
        {
          "internalType": "uint256",
          "name": "",
          "type": "uint256"
        }
      ],
      "stateMutability": "view",
      "type": "function"
    },
    {
      "inputs": [
        {
          "internalType": "uint256",
          "name": "tokenId",
          "type": "uint256"
        }
      ],
      "name": "tokenURI",
      "outputs": [
        {
          "internalType": "string",
          "name": "",
          "type": "string"
        }
      ],
      "stateMutability": "view",
      "type": "function"
    },
    {
      "inputs": [],
      "name": "totalSupply",
      "outputs": [
        {
          "internalType": "uint256",
          "name": "",
          "type": "uint256"
        }
      ],
      "stateMutability": "view",
      "type": "function"
    },
    {
      "inputs": [
        {
          "internalType": "address",
          "name": "from",
          "type": "address"
        },
        {
          "internalType": "address",
          "name": "to",
          "type": "address"
        },
        {
          "internalType": "uint256",
          "name": "tokenId",
          "type": "uint256"
        }
      ],
      "name": "transferFrom",
      "outputs": [],
      "stateMutability": "nonpayable",
      "type": "function"
    },
    {
      "inputs": [],
      "name": "underlyingERC721",
      "outputs": [
        {
          "internalType": "contract IERC721URIStorage",
          "name": "",
          "type": "address"
        }
      ],
      "stateMutability": "view",
      "type": "function"
    },
    {
      "inputs": [
        {
          "internalType": "uint256",
          "name": "tokenId",
          "type": "uint256"
        },
        {
          "internalType": "address",
          "name": "_account",
          "type": "address"
        }
      ],
      "name": "withdraw",
      "outputs": [],
      "stateMutability": "nonpayable",
      "type": "function"
    }
  ],
  "bytecode": "0x60806040523480156200001157600080fd5b5060405162003a2138038062003a2183398181016040528101906200003791906200026b565b818181600090805190602001906200005192919062000132565b5080600190805190602001906200006a92919062000132565b5050506001600a81905550600073ffffffffffffffffffffffffffffffffffffffff168373ffffffffffffffffffffffffffffffffffffffff161415620000e8576040517f08c379a0000000000000000000000000000000000000000000000000000000008152600401620000df906200031a565b60405180910390fd5b82600c60006101000a81548173ffffffffffffffffffffffffffffffffffffffff021916908373ffffffffffffffffffffffffffffffffffffffff1602179055505050506200056e565b82805462000140906200042a565b90600052602060002090601f016020900481019282620001645760008555620001b0565b82601f106200017f57805160ff1916838001178555620001b0565b82800160010185558215620001b0579182015b82811115620001af57825182559160200191906001019062000192565b5b509050620001bf9190620001c3565b5090565b5b80821115620001de576000816000905550600101620001c4565b5090565b6000620001f9620001f38462000365565b6200033c565b9050828152602081018484840111156200021257600080fd5b6200021f848285620003f4565b509392505050565b600081519050620002388162000554565b92915050565b600082601f8301126200025057600080fd5b815162000262848260208601620001e2565b91505092915050565b6000806000606084860312156200028157600080fd5b6000620002918682870162000227565b935050602084015167ffffffffffffffff811115620002af57600080fd5b620002bd868287016200023e565b925050604084015167ffffffffffffffff811115620002db57600080fd5b620002e9868287016200023e565b9150509250925092565b600062000302602f836200039b565b91506200030f8262000505565b604082019050919050565b600060208201905081810360008301526200033581620002f3565b9050919050565b6000620003486200035b565b905062000356828262000460565b919050565b6000604051905090565b600067ffffffffffffffff821115620003835762000382620004c5565b5b6200038e82620004f4565b9050602081019050919050565b600082825260208201905092915050565b6000620003b982620003d4565b9050919050565b6000620003cd82620003ac565b9050919050565b600073ffffffffffffffffffffffffffffffffffffffff82169050919050565b60005b8381101562000414578082015181840152602081019050620003f7565b8381111562000424576000848401525b50505050565b600060028204905060018216806200044357607f821691505b602082108114156200045a576200045962000496565b5b50919050565b6200046b82620004f4565b810181811067ffffffffffffffff821117156200048d576200048c620004c5565b5b80604052505050565b7f4e487b7100000000000000000000000000000000000000000000000000000000600052602260045260246000fd5b7f4e487b7100000000000000000000000000000000000000000000000000000000600052604160045260246000fd5b6000601f19601f8301169050919050565b7f455243373231577261707065723a20756e6465726c79696e674552433732315f60008201527f2063616e6e6f74206265207a65726f0000000000000000000000000000000000602082015250565b6200055f81620003c0565b81146200056b57600080fd5b50565b6134a3806200057e6000396000f3fe608060405234801561001057600080fd5b506004361061012b5760003560e01c80634204f797116100ad57806395d89b411161007157806395d89b4114610366578063a22cb46514610384578063b88d4fde146103a0578063c87b56dd146103bc578063e985e9c5146103ec5761012b565b80634204f7971461029c57806342842e0e146102ba5780634f6ccce7146102d65780636352211e1461030657806370a08231146103365761012b565b8063150b7a02116100f4578063150b7a02146101e657806318160ddd1461021657806323b872dd146102345780632e2d2984146102505780632f745c591461026c5761012b565b8062f714ce1461013057806301ffc9a71461014c57806306fdde031461017c578063081812fc1461019a578063095ea7b3146101ca575b600080fd5b61014a60048036038101906101459190612526565b61041c565b005b6101666004803603810190610161919061246a565b610480565b6040516101739190612995565b60405180910390f35b6101846104fa565b60405161019191906129e6565b60405180910390f35b6101b460048036038101906101af91906124fd565b61058c565b6040516101c191906128e4565b60405180910390f35b6101e460048036038101906101df919061242e565b610611565b005b61020060048036038101906101fb91906122f7565b610729565b60405161020d91906129b0565b60405180910390f35b61021e610757565b60405161022b9190612c28565b60405180910390f35b61024e600480360381019061024991906122a8565b610764565b005b61026a60048036038101906102659190612562565b6107c4565b005b6102866004803603810190610281919061242e565b61095a565b6040516102939190612c28565b60405180910390f35b6102a46109ff565b6040516102b191906129cb565b60405180910390f35b6102d460048036038101906102cf91906122a8565b610a25565b005b6102f060048036038101906102eb91906124fd565b610a45565b6040516102fd9190612c28565b60405180910390f35b610320600480360381019061031b91906124fd565b610adc565b60405161032d91906128e4565b60405180910390f35b610350600480360381019061034b9190612243565b610b8e565b60405161035d9190612c28565b60405180910390f35b61036e610c46565b60405161037b91906129e6565b60405180910390f35b61039e600480360381019061039991906123f2565b610cd8565b005b6103ba60048036038101906103b59190612377565b610cee565b005b6103d660048036038101906103d191906124fd565b610d50565b6040516103e391906129e6565b60405180910390f35b6104066004803603810190610401919061226c565b610e09565b6040516104139190612995565b60405180910390f35b6002600a541415610462576040517f08c379a000000000000000000000000000000000000000000000000000000000815260040161045990612c08565b60405180910390fd5b6002600a819055506104748183610e9d565b6001600a819055505050565b60007f780e9d63000000000000000000000000000000000000000000000000000000007bffffffffffffffffffffffffffffffffffffffffffffffffffffffff1916827bffffffffffffffffffffffffffffffffffffffffffffffffffffffff191614806104f357506104f28261102a565b5b9050919050565b60606000805461050990612e66565b80601f016020809104026020016040519081016040528092919081815260200182805461053590612e66565b80156105825780601f1061055757610100808354040283529160200191610582565b820191906000526020600020905b81548152906001019060200180831161056557829003601f168201915b5050505050905090565b60006105978261110c565b6105d6576040517f08c379a00000000000000000000000000000000000000000000000000000000081526004016105cd90612b68565b60405180910390fd5b6004600083815260200190815260200160002060009054906101000a900473ffffffffffffffffffffffffffffffffffffffff169050919050565b600061061c82610adc565b90508073ffffffffffffffffffffffffffffffffffffffff168373ffffffffffffffffffffffffffffffffffffffff16141561068d576040517f08c379a000000000000000000000000000000000000000000000000000000000815260040161068490612ba8565b60405180910390fd5b8073ffffffffffffffffffffffffffffffffffffffff166106ac611178565b73ffffffffffffffffffffffffffffffffffffffff1614806106db57506106da816106d5611178565b610e09565b5b61071a576040517f08c379a000000000000000000000000000000000000000000000000000000000815260040161071190612ae8565b60405180910390fd5b6107248383611180565b505050565b60007f150b7a023d4804d13e8c85fb27262cb750cf6ba9f9dd3bb30d90f482ceeb4b1f905095945050505050565b6000600880549050905090565b61077561076f611178565b82611239565b6107b4576040517f08c379a00000000000000000000000000000000000000000000000000000000081526004016107ab90612bc8565b60405180910390fd5b6107bf838383611317565b505050565b6002600a54141561080a576040517f08c379a000000000000000000000000000000000000000000000000000000000815260040161080190612c08565b60405180910390fd5b6002600a81905550600c60009054906101000a900473ffffffffffffffffffffffffffffffffffffffff1673ffffffffffffffffffffffffffffffffffffffff1663b88d4fde8330866040518463ffffffff1660e01b81526004016108719392919061294b565b600060405180830381600087803b15801561088b57600080fd5b505af115801561089f573d6000803e3d6000fd5b505050506108ad8184611573565b81600b600085815260200190815260200160002060006101000a81548173ffffffffffffffffffffffffffffffffffffffff021916908373ffffffffffffffffffffffffffffffffffffffff1602179055508173ffffffffffffffffffffffffffffffffffffffff167fe1fffcc4923d04b559f4d29a8bfc6cda04eb5b0d3c460751c2402c5c5cc9109c846040516109459190612c28565b60405180910390a26001600a81905550505050565b600061096583610b8e565b82106109a6576040517f08c379a000000000000000000000000000000000000000000000000000000000815260040161099d90612a28565b60405180910390fd5b600660008473ffffffffffffffffffffffffffffffffffffffff1673ffffffffffffffffffffffffffffffffffffffff168152602001908152602001600020600083815260200190815260200160002054905092915050565b600c60009054906101000a900473ffffffffffffffffffffffffffffffffffffffff1681565b610a4083838360405180602001604052806000815250610cee565b505050565b6000610a4f610757565b8210610a90576040517f08c379a0000000000000000000000000000000000000000000000000000000008152600401610a8790612be8565b60405180910390fd5b60088281548110610aca577f4e487b7100000000000000000000000000000000000000000000000000000000600052603260045260246000fd5b90600052602060002001549050919050565b6000806002600084815260200190815260200160002060009054906101000a900473ffffffffffffffffffffffffffffffffffffffff169050600073ffffffffffffffffffffffffffffffffffffffff168173ffffffffffffffffffffffffffffffffffffffff161415610b85576040517f08c379a0000000000000000000000000000000000000000000000000000000008152600401610b7c90612b28565b60405180910390fd5b80915050919050565b60008073ffffffffffffffffffffffffffffffffffffffff168273ffffffffffffffffffffffffffffffffffffffff161415610bff576040517f08c379a0000000000000000000000000000000000000000000000000000000008152600401610bf690612b08565b60405180910390fd5b600360008373ffffffffffffffffffffffffffffffffffffffff1673ffffffffffffffffffffffffffffffffffffffff168152602001908152602001600020549050919050565b606060018054610c5590612e66565b80601f0160208091040260200160405190810160405280929190818152602001828054610c8190612e66565b8015610cce5780601f10610ca357610100808354040283529160200191610cce565b820191906000526020600020905b815481529060010190602001808311610cb157829003601f168201915b5050505050905090565b610cea610ce3611178565b8383611741565b5050565b610cff610cf9611178565b83611239565b610d3e576040517f08c379a0000000000000000000000000000000000000000000000000000000008152600401610d3590612bc8565b60405180910390fd5b610d4a848484846118ae565b50505050565b6060600c60009054906101000a900473ffffffffffffffffffffffffffffffffffffffff1673ffffffffffffffffffffffffffffffffffffffff1663c87b56dd836040518263ffffffff1660e01b8152600401610dad9190612c28565b60006040518083038186803b158015610dc557600080fd5b505afa158015610dd9573d6000803e3d6000fd5b505050506040513d6000823e3d601f19601f82011682018060405250810190610e0291906124bc565b9050919050565b6000600560008473ffffffffffffffffffffffffffffffffffffffff1673ffffffffffffffffffffffffffffffffffffffff16815260200190815260200160002060008373ffffffffffffffffffffffffffffffffffffffff1673ffffffffffffffffffffffffffffffffffffffff16815260200190815260200160002060009054906101000a900460ff16905092915050565b8173ffffffffffffffffffffffffffffffffffffffff16600b600083815260200190815260200160002060009054906101000a900473ffffffffffffffffffffffffffffffffffffffff1673ffffffffffffffffffffffffffffffffffffffff1614610f3e576040517f08c379a0000000000000000000000000000000000000000000000000000000008152600401610f3590612a08565b60405180910390fd5b610f478161190a565b600c60009054906101000a900473ffffffffffffffffffffffffffffffffffffffff1673ffffffffffffffffffffffffffffffffffffffff1663b88d4fde3084846040518463ffffffff1660e01b8152600401610fa69392919061294b565b600060405180830381600087803b158015610fc057600080fd5b505af1158015610fd4573d6000803e3d6000fd5b505050508173ffffffffffffffffffffffffffffffffffffffff167f7fcf532c15f0a6db0bd6d0e038bea71d30d808c7d98cb3bf7268a95bf5081b658260405161101e9190612c28565b60405180910390a25050565b60007f80ac58cd000000000000000000000000000000000000000000000000000000007bffffffffffffffffffffffffffffffffffffffffffffffffffffffff1916827bffffffffffffffffffffffffffffffffffffffffffffffffffffffff191614806110f557507f5b5e139f000000000000000000000000000000000000000000000000000000007bffffffffffffffffffffffffffffffffffffffffffffffffffffffff1916827bffffffffffffffffffffffffffffffffffffffffffffffffffffffff1916145b80611105575061110482611a1b565b5b9050919050565b60008073ffffffffffffffffffffffffffffffffffffffff166002600084815260200190815260200160002060009054906101000a900473ffffffffffffffffffffffffffffffffffffffff1673ffffffffffffffffffffffffffffffffffffffff1614159050919050565b600033905090565b816004600083815260200190815260200160002060006101000a81548173ffffffffffffffffffffffffffffffffffffffff021916908373ffffffffffffffffffffffffffffffffffffffff160217905550808273ffffffffffffffffffffffffffffffffffffffff166111f383610adc565b73ffffffffffffffffffffffffffffffffffffffff167f8c5be1e5ebec7d5bd14f71427d1e84f3dd0314c0f7b2291e5b200ac8c7c3b92560405160405180910390a45050565b60006112448261110c565b611283576040517f08c379a000000000000000000000000000000000000000000000000000000000815260040161127a90612ac8565b60405180910390fd5b600061128e83610adc565b90508073ffffffffffffffffffffffffffffffffffffffff168473ffffffffffffffffffffffffffffffffffffffff1614806112fd57508373ffffffffffffffffffffffffffffffffffffffff166112e58461058c565b73ffffffffffffffffffffffffffffffffffffffff16145b8061130e575061130d8185610e09565b5b91505092915050565b8273ffffffffffffffffffffffffffffffffffffffff1661133782610adc565b73ffffffffffffffffffffffffffffffffffffffff161461138d576040517f08c379a000000000000000000000000000000000000000000000000000000000815260040161138490612b88565b60405180910390fd5b600073ffffffffffffffffffffffffffffffffffffffff168273ffffffffffffffffffffffffffffffffffffffff1614156113fd576040517f08c379a00000000000000000000000000000000000000000000000000000000081526004016113f490612a88565b60405180910390fd5b611408838383611a85565b611413600082611180565b6001600360008573ffffffffffffffffffffffffffffffffffffffff1673ffffffffffffffffffffffffffffffffffffffff16815260200190815260200160002060008282546114639190612d58565b925050819055506001600360008473ffffffffffffffffffffffffffffffffffffffff1673ffffffffffffffffffffffffffffffffffffffff16815260200190815260200160002060008282546114ba9190612d02565b92505081905550816002600083815260200190815260200160002060006101000a81548173ffffffffffffffffffffffffffffffffffffffff021916908373ffffffffffffffffffffffffffffffffffffffff160217905550808273ffffffffffffffffffffffffffffffffffffffff168473ffffffffffffffffffffffffffffffffffffffff167fddf252ad1be2c89b69c2b068fc378daa952ba7f163c4a11628f55a4df523b3ef60405160405180910390a4505050565b600073ffffffffffffffffffffffffffffffffffffffff168273ffffffffffffffffffffffffffffffffffffffff1614156115e3576040517f08c379a00000000000000000000000000000000000000000000000000000000081526004016115da90612b48565b60405180910390fd5b6115ec8161110c565b1561162c576040517f08c379a000000000000000000000000000000000000000000000000000000000815260040161162390612a68565b60405180910390fd5b61163860008383611a85565b6001600360008473ffffffffffffffffffffffffffffffffffffffff1673ffffffffffffffffffffffffffffffffffffffff16815260200190815260200160002060008282546116889190612d02565b92505081905550816002600083815260200190815260200160002060006101000a81548173ffffffffffffffffffffffffffffffffffffffff021916908373ffffffffffffffffffffffffffffffffffffffff160217905550808273ffffffffffffffffffffffffffffffffffffffff16600073ffffffffffffffffffffffffffffffffffffffff167fddf252ad1be2c89b69c2b068fc378daa952ba7f163c4a11628f55a4df523b3ef60405160405180910390a45050565b8173ffffffffffffffffffffffffffffffffffffffff168373ffffffffffffffffffffffffffffffffffffffff1614156117b0576040517f08c379a00000000000000000000000000000000000000000000000000000000081526004016117a790612aa8565b60405180910390fd5b80600560008573ffffffffffffffffffffffffffffffffffffffff1673ffffffffffffffffffffffffffffffffffffffff16815260200190815260200160002060008473ffffffffffffffffffffffffffffffffffffffff1673ffffffffffffffffffffffffffffffffffffffff16815260200190815260200160002060006101000a81548160ff0219169083151502179055508173ffffffffffffffffffffffffffffffffffffffff168373ffffffffffffffffffffffffffffffffffffffff167f17307eab39ab6107e8899845ad3d59bd9653f200f220920489ca2b5937696c31836040516118a19190612995565b60405180910390a3505050565b6118b9848484611317565b6118c584848484611b99565b611904576040517f08c379a00000000000000000000000000000000000000000000000000000000081526004016118fb90612a48565b60405180910390fd5b50505050565b600061191582610adc565b905061192381600084611a85565b61192e600083611180565b6001600360008373ffffffffffffffffffffffffffffffffffffffff1673ffffffffffffffffffffffffffffffffffffffff168152602001908152602001600020600082825461197e9190612d58565b925050819055506002600083815260200190815260200160002060006101000a81549073ffffffffffffffffffffffffffffffffffffffff021916905581600073ffffffffffffffffffffffffffffffffffffffff168273ffffffffffffffffffffffffffffffffffffffff167fddf252ad1be2c89b69c2b068fc378daa952ba7f163c4a11628f55a4df523b3ef60405160405180910390a45050565b60007f01ffc9a7000000000000000000000000000000000000000000000000000000007bffffffffffffffffffffffffffffffffffffffffffffffffffffffff1916827bffffffffffffffffffffffffffffffffffffffffffffffffffffffff1916149050919050565b611a90838383611d30565b600073ffffffffffffffffffffffffffffffffffffffff168373ffffffffffffffffffffffffffffffffffffffff161415611ad357611ace81611d35565b611b12565b8173ffffffffffffffffffffffffffffffffffffffff168373ffffffffffffffffffffffffffffffffffffffff1614611b1157611b108382611d7e565b5b5b600073ffffffffffffffffffffffffffffffffffffffff168273ffffffffffffffffffffffffffffffffffffffff161415611b5557611b5081611eeb565b611b94565b8273ffffffffffffffffffffffffffffffffffffffff168273ffffffffffffffffffffffffffffffffffffffff1614611b9357611b92828261202e565b5b5b505050565b6000611bba8473ffffffffffffffffffffffffffffffffffffffff166120ad565b15611d23578373ffffffffffffffffffffffffffffffffffffffff1663150b7a02611be3611178565b8786866040518563ffffffff1660e01b8152600401611c0594939291906128ff565b602060405180830381600087803b158015611c1f57600080fd5b505af1925050508015611c5057506040513d601f19601f82011682018060405250810190611c4d9190612493565b60015b611cd3573d8060008114611c80576040519150601f19603f3d011682016040523d82523d6000602084013e611c85565b606091505b50600081511415611ccb576040517f08c379a0000000000000000000000000000000000000000000000000000000008152600401611cc290612a48565b60405180910390fd5b805181602001fd5b63150b7a0260e01b7bffffffffffffffffffffffffffffffffffffffffffffffffffffffff1916817bffffffffffffffffffffffffffffffffffffffffffffffffffffffff191614915050611d28565b600190505b949350505050565b505050565b6008805490506009600083815260200190815260200160002081905550600881908060018154018082558091505060019003906000526020600020016000909190919091505550565b60006001611d8b84610b8e565b611d959190612d58565b9050600060076000848152602001908152602001600020549050818114611e7a576000600660008673ffffffffffffffffffffffffffffffffffffffff1673ffffffffffffffffffffffffffffffffffffffff168152602001908152602001600020600084815260200190815260200160002054905080600660008773ffffffffffffffffffffffffffffffffffffffff1673ffffffffffffffffffffffffffffffffffffffff168152602001908152602001600020600084815260200190815260200160002081905550816007600083815260200190815260200160002081905550505b6007600084815260200190815260200160002060009055600660008573ffffffffffffffffffffffffffffffffffffffff1673ffffffffffffffffffffffffffffffffffffffff16815260200190815260200160002060008381526020019081526020016000206000905550505050565b60006001600880549050611eff9190612d58565b9050600060096000848152602001908152602001600020549050600060088381548110611f55577f4e487b7100000000000000000000000000000000000000000000000000000000600052603260045260246000fd5b906000526020600020015490508060088381548110611f9d577f4e487b7100000000000000000000000000000000000000000000000000000000600052603260045260246000fd5b906000526020600020018190555081600960008381526020019081526020016000208190555060096000858152602001908152602001600020600090556008805480612012577f4e487b7100000000000000000000000000000000000000000000000000000000600052603160045260246000fd5b6001900381819060005260206000200160009055905550505050565b600061203983610b8e565b905081600660008573ffffffffffffffffffffffffffffffffffffffff1673ffffffffffffffffffffffffffffffffffffffff168152602001908152602001600020600083815260200190815260200160002081905550806007600084815260200190815260200160002081905550505050565b600080823b905060008111915050919050565b60006120d36120ce84612c68565b612c43565b9050828152602081018484840111156120eb57600080fd5b6120f6848285612e24565b509392505050565b600061211161210c84612c99565b612c43565b90508281526020810184848401111561212957600080fd5b612134848285612e33565b509392505050565b60008135905061214b81613411565b92915050565b60008135905061216081613428565b92915050565b6000813590506121758161343f565b92915050565b60008151905061218a8161343f565b92915050565b60008083601f8401126121a257600080fd5b8235905067ffffffffffffffff8111156121bb57600080fd5b6020830191508360018202830111156121d357600080fd5b9250929050565b600082601f8301126121eb57600080fd5b81356121fb8482602086016120c0565b91505092915050565b600082601f83011261221557600080fd5b81516122258482602086016120fe565b91505092915050565b60008135905061223d81613456565b92915050565b60006020828403121561225557600080fd5b60006122638482850161213c565b91505092915050565b6000806040838503121561227f57600080fd5b600061228d8582860161213c565b925050602061229e8582860161213c565b9150509250929050565b6000806000606084860312156122bd57600080fd5b60006122cb8682870161213c565b93505060206122dc8682870161213c565b92505060406122ed8682870161222e565b9150509250925092565b60008060008060006080868803121561230f57600080fd5b600061231d8882890161213c565b955050602061232e8882890161213c565b945050604061233f8882890161222e565b935050606086013567ffffffffffffffff81111561235c57600080fd5b61236888828901612190565b92509250509295509295909350565b6000806000806080858703121561238d57600080fd5b600061239b8782880161213c565b94505060206123ac8782880161213c565b93505060406123bd8782880161222e565b925050606085013567ffffffffffffffff8111156123da57600080fd5b6123e6878288016121da565b91505092959194509250565b6000806040838503121561240557600080fd5b60006124138582860161213c565b925050602061242485828601612151565b9150509250929050565b6000806040838503121561244157600080fd5b600061244f8582860161213c565b92505060206124608582860161222e565b9150509250929050565b60006020828403121561247c57600080fd5b600061248a84828501612166565b91505092915050565b6000602082840312156124a557600080fd5b60006124b38482850161217b565b91505092915050565b6000602082840312156124ce57600080fd5b600082015167ffffffffffffffff8111156124e857600080fd5b6124f484828501612204565b91505092915050565b60006020828403121561250f57600080fd5b600061251d8482850161222e565b91505092915050565b6000806040838503121561253957600080fd5b60006125478582860161222e565b92505060206125588582860161213c565b9150509250929050565b60008060006060848603121561257757600080fd5b60006125858682870161222e565b93505060206125968682870161213c565b92505060406125a78682870161213c565b9150509250925092565b6125ba81612d8c565b82525050565b6125c981612d9e565b82525050565b6125d881612daa565b82525050565b60006125e982612cca565b6125f38185612ce0565b9350612603818560208601612e33565b61260c81612f56565b840191505092915050565b61262081612e00565b82525050565b600061263182612cd5565b61263b8185612cf1565b935061264b818560208601612e33565b61265481612f56565b840191505092915050565b600061266c602f83612cf1565b915061267782612f67565b604082019050919050565b600061268f602b83612cf1565b915061269a82612fb6565b604082019050919050565b60006126b2603283612cf1565b91506126bd82613005565b604082019050919050565b60006126d5601c83612cf1565b91506126e082613054565b602082019050919050565b60006126f8602483612cf1565b91506127038261307d565b604082019050919050565b600061271b601983612cf1565b9150612726826130cc565b602082019050919050565b600061273e602c83612cf1565b9150612749826130f5565b604082019050919050565b6000612761603883612cf1565b915061276c82613144565b604082019050919050565b6000612784602a83612cf1565b915061278f82613193565b604082019050919050565b60006127a7602983612cf1565b91506127b2826131e2565b604082019050919050565b60006127ca602083612cf1565b91506127d582613231565b602082019050919050565b60006127ed602c83612cf1565b91506127f88261325a565b604082019050919050565b6000612810602983612cf1565b915061281b826132a9565b604082019050919050565b6000612833602183612cf1565b915061283e826132f8565b604082019050919050565b6000612856600083612ce0565b915061286182613347565b600082019050919050565b6000612879603183612cf1565b91506128848261334a565b604082019050919050565b600061289c602c83612cf1565b91506128a782613399565b604082019050919050565b60006128bf601f83612cf1565b91506128ca826133e8565b602082019050919050565b6128de81612df6565b82525050565b60006020820190506128f960008301846125b1565b92915050565b600060808201905061291460008301876125b1565b61292160208301866125b1565b61292e60408301856128d5565b818103606083015261294081846125de565b905095945050505050565b600060808201905061296060008301866125b1565b61296d60208301856125b1565b61297a60408301846128d5565b818103606083015261298b81612849565b9050949350505050565b60006020820190506129aa60008301846125c0565b92915050565b60006020820190506129c560008301846125cf565b92915050565b60006020820190506129e06000830184612617565b92915050565b60006020820190508181036000830152612a008184612626565b905092915050565b60006020820190508181036000830152612a218161265f565b9050919050565b60006020820190508181036000830152612a4181612682565b9050919050565b60006020820190508181036000830152612a61816126a5565b9050919050565b60006020820190508181036000830152612a81816126c8565b9050919050565b60006020820190508181036000830152612aa1816126eb565b9050919050565b60006020820190508181036000830152612ac18161270e565b9050919050565b60006020820190508181036000830152612ae181612731565b9050919050565b60006020820190508181036000830152612b0181612754565b9050919050565b60006020820190508181036000830152612b2181612777565b9050919050565b60006020820190508181036000830152612b418161279a565b9050919050565b60006020820190508181036000830152612b61816127bd565b9050919050565b60006020820190508181036000830152612b81816127e0565b9050919050565b60006020820190508181036000830152612ba181612803565b9050919050565b60006020820190508181036000830152612bc181612826565b9050919050565b60006020820190508181036000830152612be18161286c565b9050919050565b60006020820190508181036000830152612c018161288f565b9050919050565b60006020820190508181036000830152612c21816128b2565b9050919050565b6000602082019050612c3d60008301846128d5565b92915050565b6000612c4d612c5e565b9050612c598282612e98565b919050565b6000604051905090565b600067ffffffffffffffff821115612c8357612c82612f27565b5b612c8c82612f56565b9050602081019050919050565b600067ffffffffffffffff821115612cb457612cb3612f27565b5b612cbd82612f56565b9050602081019050919050565b600081519050919050565b600081519050919050565b600082825260208201905092915050565b600082825260208201905092915050565b6000612d0d82612df6565b9150612d1883612df6565b9250827fffffffffffffffffffffffffffffffffffffffffffffffffffffffffffffffff03821115612d4d57612d4c612ec9565b5b828201905092915050565b6000612d6382612df6565b9150612d6e83612df6565b925082821015612d8157612d80612ec9565b5b828203905092915050565b6000612d9782612dd6565b9050919050565b60008115159050919050565b60007fffffffff0000000000000000000000000000000000000000000000000000000082169050919050565b600073ffffffffffffffffffffffffffffffffffffffff82169050919050565b6000819050919050565b6000612e0b82612e12565b9050919050565b6000612e1d82612dd6565b9050919050565b82818337600083830152505050565b60005b83811015612e51578082015181840152602081019050612e36565b83811115612e60576000848401525b50505050565b60006002820490506001821680612e7e57607f821691505b60208210811415612e9257612e91612ef8565b5b50919050565b612ea182612f56565b810181811067ffffffffffffffff82111715612ec057612ebf612f27565b5b80604052505050565b7f4e487b7100000000000000000000000000000000000000000000000000000000600052601160045260246000fd5b7f4e487b7100000000000000000000000000000000000000000000000000000000600052602260045260246000fd5b7f4e487b7100000000000000000000000000000000000000000000000000000000600052604160045260246000fd5b6000601f19601f8301169050919050565b7f455243373231577261707065723a2063616c6c6572206973206e6f74206f776e60008201527f6572206e6f7220617070726f7665640000000000000000000000000000000000602082015250565b7f455243373231456e756d657261626c653a206f776e657220696e646578206f7560008201527f74206f6620626f756e6473000000000000000000000000000000000000000000602082015250565b7f4552433732313a207472616e7366657220746f206e6f6e20455243373231526560008201527f63656976657220696d706c656d656e7465720000000000000000000000000000602082015250565b7f4552433732313a20746f6b656e20616c7265616479206d696e74656400000000600082015250565b7f4552433732313a207472616e7366657220746f20746865207a65726f2061646460008201527f7265737300000000000000000000000000000000000000000000000000000000602082015250565b7f4552433732313a20617070726f766520746f2063616c6c657200000000000000600082015250565b7f4552433732313a206f70657261746f7220717565727920666f72206e6f6e657860008201527f697374656e7420746f6b656e0000000000000000000000000000000000000000602082015250565b7f4552433732313a20617070726f76652063616c6c6572206973206e6f74206f7760008201527f6e6572206e6f7220617070726f76656420666f7220616c6c0000000000000000602082015250565b7f4552433732313a2062616c616e636520717565727920666f7220746865207a6560008201527f726f206164647265737300000000000000000000000000000000000000000000602082015250565b7f4552433732313a206f776e657220717565727920666f72206e6f6e657869737460008201527f656e7420746f6b656e0000000000000000000000000000000000000000000000602082015250565b7f4552433732313a206d696e7420746f20746865207a65726f2061646472657373600082015250565b7f4552433732313a20617070726f76656420717565727920666f72206e6f6e657860008201527f697374656e7420746f6b656e0000000000000000000000000000000000000000602082015250565b7f4552433732313a207472616e73666572206f6620746f6b656e2074686174206960008201527f73206e6f74206f776e0000000000000000000000000000000000000000000000602082015250565b7f4552433732313a20617070726f76616c20746f2063757272656e74206f776e6560008201527f7200000000000000000000000000000000000000000000000000000000000000602082015250565b50565b7f4552433732313a207472616e736665722063616c6c6572206973206e6f74206f60008201527f776e6572206e6f7220617070726f766564000000000000000000000000000000602082015250565b7f455243373231456e756d657261626c653a20676c6f62616c20696e646578206f60008201527f7574206f6620626f756e64730000000000000000000000000000000000000000602082015250565b7f5265656e7472616e637947756172643a207265656e7472616e742063616c6c00600082015250565b61341a81612d8c565b811461342557600080fd5b50565b61343181612d9e565b811461343c57600080fd5b50565b61344881612daa565b811461345357600080fd5b50565b61345f81612df6565b811461346a57600080fd5b5056fea26469706673582212204a55ac1cb60092fb50193641e6831e34c30cff9e84878448477e0a1f19683d5d64736f6c63430008040033",
  "linkReferences": {},
  "deployedLinkReferences": {}
}