{
  "_format": "hh-sol-artifact-1",
  "contractName": "NFTMarket",
  "sourceName": "contracts/NFTMarket.sol",
  "abi": [
    {
      "inputs": [],
      "stateMutability": "nonpayable",
      "type": "constructor"
    },
    {
      "anonymous": false,
      "inputs": [
        {
          "indexed": true,
          "internalType": "uint256",
          "name": "itemId",
          "type": "uint256"
        },
        {
          "indexed": true,
          "internalType": "address",
          "name": "nftContract",
          "type": "address"
        },
        {
          "indexed": true,
          "internalType": "uint256",
          "name": "tokenId",
          "type": "uint256"
        },
        {
          "indexed": false,
          "internalType": "address",
          "name": "seller",
          "type": "address"
        },
        {
          "indexed": false,
          "internalType": "address",
          "name": "owner",
          "type": "address"
        },
        {
          "indexed": false,
          "internalType": "uint256",
          "name": "onemonthPrice",
          "type": "uint256"
        },
        {
          "indexed": false,
          "internalType": "uint256",
          "name": "threemonthPrice",
          "type": "uint256"
        },
        {
          "indexed": false,
          "internalType": "uint256",
          "name": "sixmonthPrice",
          "type": "uint256"
        },
        {
          "indexed": false,
          "internalType": "uint256",
          "name": "twelvemonthPrice",
          "type": "uint256"
        }
      ],
      "name": "MarketItemCreated",
      "type": "event"
    },
    {
      "inputs": [
        {
          "internalType": "address",
          "name": "nftContract",
          "type": "address"
        },
        {
          "internalType": "uint256",
          "name": "tokenId",
          "type": "uint256"
        },
        {
          "internalType": "uint256",
          "name": "onemonthPrice",
          "type": "uint256"
        },
        {
          "internalType": "uint256",
          "name": "threemonthPrice",
          "type": "uint256"
        },
        {
          "internalType": "uint256",
          "name": "sixmonthPrice",
          "type": "uint256"
        },
        {
          "internalType": "uint256",
          "name": "twelvemonthPrice",
          "type": "uint256"
        }
      ],
      "name": "createMarketItem",
      "outputs": [],
      "stateMutability": "nonpayable",
      "type": "function"
    },
    {
      "inputs": [
        {
          "internalType": "address",
          "name": "nftContract",
          "type": "address"
        },
        {
          "internalType": "uint256",
          "name": "itemId",
          "type": "uint256"
        }
      ],
      "name": "createMarketSale",
      "outputs": [],
      "stateMutability": "nonpayable",
      "type": "function"
    },
    {
      "inputs": [],
      "name": "fetchCreateNFTs",
      "outputs": [
        {
          "components": [
            {
              "internalType": "uint256",
              "name": "itemId",
              "type": "uint256"
            },
            {
              "internalType": "address",
              "name": "nftContract",
              "type": "address"
            },
            {
              "internalType": "uint256",
              "name": "tokenId",
              "type": "uint256"
            },
            {
              "internalType": "address payable",
              "name": "seller",
              "type": "address"
            },
            {
              "internalType": "address payable",
              "name": "owner",
              "type": "address"
            },
            {
              "internalType": "uint256",
              "name": "onemonthPrice",
              "type": "uint256"
            },
            {
              "internalType": "uint256",
              "name": "threemonthPrice",
              "type": "uint256"
            },
            {
              "internalType": "uint256",
              "name": "sixmonthPrice",
              "type": "uint256"
            },
            {
              "internalType": "uint256",
              "name": "twelvemonthPrice",
              "type": "uint256"
            }
          ],
          "internalType": "struct NFTMarket.MarketItem[]",
          "name": "",
          "type": "tuple[]"
        }
      ],
      "stateMutability": "view",
      "type": "function"
    },
    {
      "inputs": [
        {
          "internalType": "uint256",
          "name": "itemId",
          "type": "uint256"
        }
      ],
      "name": "fetchMarketItem",
      "outputs": [
        {
          "components": [
            {
              "internalType": "uint256",
              "name": "itemId",
              "type": "uint256"
            },
            {
              "internalType": "address",
              "name": "nftContract",
              "type": "address"
            },
            {
              "internalType": "uint256",
              "name": "tokenId",
              "type": "uint256"
            },
            {
              "internalType": "address payable",
              "name": "seller",
              "type": "address"
            },
            {
              "internalType": "address payable",
              "name": "owner",
              "type": "address"
            },
            {
              "internalType": "uint256",
              "name": "onemonthPrice",
              "type": "uint256"
            },
            {
              "internalType": "uint256",
              "name": "threemonthPrice",
              "type": "uint256"
            },
            {
              "internalType": "uint256",
              "name": "sixmonthPrice",
              "type": "uint256"
            },
            {
              "internalType": "uint256",
              "name": "twelvemonthPrice",
              "type": "uint256"
            }
          ],
          "internalType": "struct NFTMarket.MarketItem",
          "name": "",
          "type": "tuple"
        }
      ],
      "stateMutability": "view",
      "type": "function"
    },
    {
      "inputs": [],
      "name": "fetchMarketItems",
      "outputs": [
        {
          "components": [
            {
              "internalType": "uint256",
              "name": "itemId",
              "type": "uint256"
            },
            {
              "internalType": "address",
              "name": "nftContract",
              "type": "address"
            },
            {
              "internalType": "uint256",
              "name": "tokenId",
              "type": "uint256"
            },
            {
              "internalType": "address payable",
              "name": "seller",
              "type": "address"
            },
            {
              "internalType": "address payable",
              "name": "owner",
              "type": "address"
            },
            {
              "internalType": "uint256",
              "name": "onemonthPrice",
              "type": "uint256"
            },
            {
              "internalType": "uint256",
              "name": "threemonthPrice",
              "type": "uint256"
            },
            {
              "internalType": "uint256",
              "name": "sixmonthPrice",
              "type": "uint256"
            },
            {
              "internalType": "uint256",
              "name": "twelvemonthPrice",
              "type": "uint256"
            }
          ],
          "internalType": "struct NFTMarket.MarketItem[]",
          "name": "",
          "type": "tuple[]"
        }
      ],
      "stateMutability": "view",
      "type": "function"
    },
    {
      "inputs": [],
      "name": "fetchMyNFTs",
      "outputs": [
        {
          "components": [
            {
              "internalType": "uint256",
              "name": "itemId",
              "type": "uint256"
            },
            {
              "internalType": "address",
              "name": "nftContract",
              "type": "address"
            },
            {
              "internalType": "uint256",
              "name": "tokenId",
              "type": "uint256"
            },
            {
              "internalType": "address payable",
              "name": "seller",
              "type": "address"
            },
            {
              "internalType": "address payable",
              "name": "owner",
              "type": "address"
            },
            {
              "internalType": "uint256",
              "name": "onemonthPrice",
              "type": "uint256"
            },
            {
              "internalType": "uint256",
              "name": "threemonthPrice",
              "type": "uint256"
            },
            {
              "internalType": "uint256",
              "name": "sixmonthPrice",
              "type": "uint256"
            },
            {
              "internalType": "uint256",
              "name": "twelvemonthPrice",
              "type": "uint256"
            }
          ],
          "internalType": "struct NFTMarket.MarketItem[]",
          "name": "",
          "type": "tuple[]"
        }
      ],
      "stateMutability": "view",
      "type": "function"
    },
    {
      "inputs": [
        {
          "internalType": "address",
          "name": "sellerAddress",
          "type": "address"
        }
      ],
      "name": "fetchSellerNFTs",
      "outputs": [
        {
          "components": [
            {
              "internalType": "uint256",
              "name": "itemId",
              "type": "uint256"
            },
            {
              "internalType": "address",
              "name": "nftContract",
              "type": "address"
            },
            {
              "internalType": "uint256",
              "name": "tokenId",
              "type": "uint256"
            },
            {
              "internalType": "address payable",
              "name": "seller",
              "type": "address"
            },
            {
              "internalType": "address payable",
              "name": "owner",
              "type": "address"
            },
            {
              "internalType": "uint256",
              "name": "onemonthPrice",
              "type": "uint256"
            },
            {
              "internalType": "uint256",
              "name": "threemonthPrice",
              "type": "uint256"
            },
            {
              "internalType": "uint256",
              "name": "sixmonthPrice",
              "type": "uint256"
            },
            {
              "internalType": "uint256",
              "name": "twelvemonthPrice",
              "type": "uint256"
            }
          ],
          "internalType": "struct NFTMarket.MarketItem[]",
          "name": "",
          "type": "tuple[]"
        }
      ],
      "stateMutability": "view",
      "type": "function"
    },
    {
      "inputs": [
        {
          "internalType": "address",
          "name": "sellerAddress",
          "type": "address"
        }
      ],
      "name": "fetchSellersCreateNFTs",
      "outputs": [
        {
          "components": [
            {
              "internalType": "uint256",
              "name": "itemId",
              "type": "uint256"
            },
            {
              "internalType": "address",
              "name": "nftContract",
              "type": "address"
            },
            {
              "internalType": "uint256",
              "name": "tokenId",
              "type": "uint256"
            },
            {
              "internalType": "address payable",
              "name": "seller",
              "type": "address"
            },
            {
              "internalType": "address payable",
              "name": "owner",
              "type": "address"
            },
            {
              "internalType": "uint256",
              "name": "onemonthPrice",
              "type": "uint256"
            },
            {
              "internalType": "uint256",
              "name": "threemonthPrice",
              "type": "uint256"
            },
            {
              "internalType": "uint256",
              "name": "sixmonthPrice",
              "type": "uint256"
            },
            {
              "internalType": "uint256",
              "name": "twelvemonthPrice",
              "type": "uint256"
            }
          ],
          "internalType": "struct NFTMarket.MarketItem[]",
          "name": "",
          "type": "tuple[]"
        }
      ],
      "stateMutability": "view",
      "type": "function"
    },
    {
      "inputs": [
        {
          "internalType": "uint256",
          "name": "marketItemId",
          "type": "uint256"
        }
      ],
      "name": "getMarketItem",
      "outputs": [
        {
          "components": [
            {
              "internalType": "uint256",
              "name": "itemId",
              "type": "uint256"
            },
            {
              "internalType": "address",
              "name": "nftContract",
              "type": "address"
            },
            {
              "internalType": "uint256",
              "name": "tokenId",
              "type": "uint256"
            },
            {
              "internalType": "address payable",
              "name": "seller",
              "type": "address"
            },
            {
              "internalType": "address payable",
              "name": "owner",
              "type": "address"
            },
            {
              "internalType": "uint256",
              "name": "onemonthPrice",
              "type": "uint256"
            },
            {
              "internalType": "uint256",
              "name": "threemonthPrice",
              "type": "uint256"
            },
            {
              "internalType": "uint256",
              "name": "sixmonthPrice",
              "type": "uint256"
            },
            {
              "internalType": "uint256",
              "name": "twelvemonthPrice",
              "type": "uint256"
            }
          ],
          "internalType": "struct NFTMarket.MarketItem",
          "name": "",
          "type": "tuple"
        }
      ],
      "stateMutability": "view",
      "type": "function"
    }
  ],
  "bytecode": "0x608060405234801561001057600080fd5b50600160008190555033600360006101000a81548173ffffffffffffffffffffffffffffffffffffffff021916908373ffffffffffffffffffffffffffffffffffffffff160217905550612226806100696000396000f3fe608060405234801561001057600080fd5b50600436106100935760003560e01c80637cbad146116100665780637cbad146146101345780639b1939bd14610152578063bf14ebb414610182578063c23b139e1461019e578063c7be7a49146101ba57610093565b80630f08efe014610098578063202e3740146100b65780632a45b250146100d45780633c271a3614610104575b600080fd5b6100a06101ea565b6040516100ad9190611fa1565b60405180910390f35b6100be61051a565b6040516100cb9190611fa1565b60405180910390f35b6100ee60048036038101906100e99190611c8d565b6108ce565b6040516100fb9190611fe3565b60405180910390f35b61011e60048036038101906101199190611b9f565b610a40565b60405161012b9190611fa1565b60405180910390f35b61013c610df6565b6040516101499190611fa1565b60405180910390f35b61016c60048036038101906101679190611b9f565b6111aa565b6040516101799190611fa1565b60405180910390f35b61019c60048036038101906101979190611c04565b611560565b005b6101b860048036038101906101b39190611bc8565b6117dd565b005b6101d460048036038101906101cf9190611c8d565b611957565b6040516101e19190611fe3565b60405180910390f35b606060006101f86001611ac3565b905060006102066002611ac3565b6102106001611ac3565b61021a919061209f565b90506000808267ffffffffffffffff81111561025f577f4e487b7100000000000000000000000000000000000000000000000000000000600052604160045260246000fd5b60405190808252806020026020018201604052801561029857816020015b610285611ae7565b81526020019060019003908161027d5790505b50905060005b8481101561050f57600073ffffffffffffffffffffffffffffffffffffffff16600460006001846102cf9190612049565b815260200190815260200160002060040160009054906101000a900473ffffffffffffffffffffffffffffffffffffffff1673ffffffffffffffffffffffffffffffffffffffff1614156104fc576000600460006001846103309190612049565b815260200190815260200160002060000154905060006004600083815260200190815260200160002090508060405180610120016040529081600082015481526020016001820160009054906101000a900473ffffffffffffffffffffffffffffffffffffffff1673ffffffffffffffffffffffffffffffffffffffff1673ffffffffffffffffffffffffffffffffffffffff168152602001600282015481526020016003820160009054906101000a900473ffffffffffffffffffffffffffffffffffffffff1673ffffffffffffffffffffffffffffffffffffffff1673ffffffffffffffffffffffffffffffffffffffff1681526020016004820160009054906101000a900473ffffffffffffffffffffffffffffffffffffffff1673ffffffffffffffffffffffffffffffffffffffff1673ffffffffffffffffffffffffffffffffffffffff1681526020016005820154815260200160068201548152602001600782015481526020016008820154815250508486815181106104df577f4e487b7100000000000000000000000000000000000000000000000000000000600052603260045260246000fd5b60200260200101819052506001856104f79190612049565b945050505b808061050790612121565b91505061029e565b508094505050505090565b606060006105286001611ac3565b905060008060005b838110156105d1573373ffffffffffffffffffffffffffffffffffffffff16600460006001846105609190612049565b815260200190815260200160002060040160009054906101000a900473ffffffffffffffffffffffffffffffffffffffff1673ffffffffffffffffffffffffffffffffffffffff1614156105be576001836105bb9190612049565b92505b80806105c990612121565b915050610530565b5060008267ffffffffffffffff811115610614577f4e487b7100000000000000000000000000000000000000000000000000000000600052604160045260246000fd5b60405190808252806020026020018201604052801561064d57816020015b61063a611ae7565b8152602001906001900390816106325790505b50905060005b848110156108c3573373ffffffffffffffffffffffffffffffffffffffff16600460006001846106839190612049565b815260200190815260200160002060040160009054906101000a900473ffffffffffffffffffffffffffffffffffffffff1673ffffffffffffffffffffffffffffffffffffffff1614156108b0576000600460006001846106e49190612049565b815260200190815260200160002060000154905060006004600083815260200190815260200160002090508060405180610120016040529081600082015481526020016001820160009054906101000a900473ffffffffffffffffffffffffffffffffffffffff1673ffffffffffffffffffffffffffffffffffffffff1673ffffffffffffffffffffffffffffffffffffffff168152602001600282015481526020016003820160009054906101000a900473ffffffffffffffffffffffffffffffffffffffff1673ffffffffffffffffffffffffffffffffffffffff1673ffffffffffffffffffffffffffffffffffffffff1681526020016004820160009054906101000a900473ffffffffffffffffffffffffffffffffffffffff1673ffffffffffffffffffffffffffffffffffffffff1673ffffffffffffffffffffffffffffffffffffffff168152602001600582015481526020016006820154815260200160078201548152602001600882015481525050848681518110610893577f4e487b7100000000000000000000000000000000000000000000000000000000600052603260045260246000fd5b60200260200101819052506001856108ab9190612049565b945050505b80806108bb90612121565b915050610653565b508094505050505090565b6108d6611ae7565b60006004600084815260200190815260200160002060405180610120016040529081600082015481526020016001820160009054906101000a900473ffffffffffffffffffffffffffffffffffffffff1673ffffffffffffffffffffffffffffffffffffffff1673ffffffffffffffffffffffffffffffffffffffff168152602001600282015481526020016003820160009054906101000a900473ffffffffffffffffffffffffffffffffffffffff1673ffffffffffffffffffffffffffffffffffffffff1673ffffffffffffffffffffffffffffffffffffffff1681526020016004820160009054906101000a900473ffffffffffffffffffffffffffffffffffffffff1673ffffffffffffffffffffffffffffffffffffffff1673ffffffffffffffffffffffffffffffffffffffff168152602001600582015481526020016006820154815260200160078201548152602001600882015481525050905080915050919050565b60606000610a4e6001611ac3565b905060008060005b83811015610af7578573ffffffffffffffffffffffffffffffffffffffff1660046000600184610a869190612049565b815260200190815260200160002060040160009054906101000a900473ffffffffffffffffffffffffffffffffffffffff1673ffffffffffffffffffffffffffffffffffffffff161415610ae457600183610ae19190612049565b92505b8080610aef90612121565b915050610a56565b5060008267ffffffffffffffff811115610b3a577f4e487b7100000000000000000000000000000000000000000000000000000000600052604160045260246000fd5b604051908082528060200260200182016040528015610b7357816020015b610b60611ae7565b815260200190600190039081610b585790505b50905060005b84811015610de9578673ffffffffffffffffffffffffffffffffffffffff1660046000600184610ba99190612049565b815260200190815260200160002060040160009054906101000a900473ffffffffffffffffffffffffffffffffffffffff1673ffffffffffffffffffffffffffffffffffffffff161415610dd657600060046000600184610c0a9190612049565b815260200190815260200160002060000154905060006004600083815260200190815260200160002090508060405180610120016040529081600082015481526020016001820160009054906101000a900473ffffffffffffffffffffffffffffffffffffffff1673ffffffffffffffffffffffffffffffffffffffff1673ffffffffffffffffffffffffffffffffffffffff168152602001600282015481526020016003820160009054906101000a900473ffffffffffffffffffffffffffffffffffffffff1673ffffffffffffffffffffffffffffffffffffffff1673ffffffffffffffffffffffffffffffffffffffff1681526020016004820160009054906101000a900473ffffffffffffffffffffffffffffffffffffffff1673ffffffffffffffffffffffffffffffffffffffff1673ffffffffffffffffffffffffffffffffffffffff168152602001600582015481526020016006820154815260200160078201548152602001600882015481525050848681518110610db9577f4e487b7100000000000000000000000000000000000000000000000000000000600052603260045260246000fd5b6020026020010181905250600185610dd19190612049565b945050505b8080610de190612121565b915050610b79565b5080945050505050919050565b60606000610e046001611ac3565b905060008060005b83811015610ead573373ffffffffffffffffffffffffffffffffffffffff1660046000600184610e3c9190612049565b815260200190815260200160002060030160009054906101000a900473ffffffffffffffffffffffffffffffffffffffff1673ffffffffffffffffffffffffffffffffffffffff161415610e9a57600183610e979190612049565b92505b8080610ea590612121565b915050610e0c565b5060008267ffffffffffffffff811115610ef0577f4e487b7100000000000000000000000000000000000000000000000000000000600052604160045260246000fd5b604051908082528060200260200182016040528015610f2957816020015b610f16611ae7565b815260200190600190039081610f0e5790505b50905060005b8481101561119f573373ffffffffffffffffffffffffffffffffffffffff1660046000600184610f5f9190612049565b815260200190815260200160002060030160009054906101000a900473ffffffffffffffffffffffffffffffffffffffff1673ffffffffffffffffffffffffffffffffffffffff16141561118c57600060046000600184610fc09190612049565b815260200190815260200160002060000154905060006004600083815260200190815260200160002090508060405180610120016040529081600082015481526020016001820160009054906101000a900473ffffffffffffffffffffffffffffffffffffffff1673ffffffffffffffffffffffffffffffffffffffff1673ffffffffffffffffffffffffffffffffffffffff168152602001600282015481526020016003820160009054906101000a900473ffffffffffffffffffffffffffffffffffffffff1673ffffffffffffffffffffffffffffffffffffffff1673ffffffffffffffffffffffffffffffffffffffff1681526020016004820160009054906101000a900473ffffffffffffffffffffffffffffffffffffffff1673ffffffffffffffffffffffffffffffffffffffff1673ffffffffffffffffffffffffffffffffffffffff16815260200160058201548152602001600682015481526020016007820154815260200160088201548152505084868151811061116f577f4e487b7100000000000000000000000000000000000000000000000000000000600052603260045260246000fd5b60200260200101819052506001856111879190612049565b945050505b808061119790612121565b915050610f2f565b508094505050505090565b606060006111b86001611ac3565b905060008060005b83811015611261578573ffffffffffffffffffffffffffffffffffffffff16600460006001846111f09190612049565b815260200190815260200160002060030160009054906101000a900473ffffffffffffffffffffffffffffffffffffffff1673ffffffffffffffffffffffffffffffffffffffff16141561124e5760018361124b9190612049565b92505b808061125990612121565b9150506111c0565b5060008267ffffffffffffffff8111156112a4577f4e487b7100000000000000000000000000000000000000000000000000000000600052604160045260246000fd5b6040519080825280602002602001820160405280156112dd57816020015b6112ca611ae7565b8152602001906001900390816112c25790505b50905060005b84811015611553578673ffffffffffffffffffffffffffffffffffffffff16600460006001846113139190612049565b815260200190815260200160002060030160009054906101000a900473ffffffffffffffffffffffffffffffffffffffff1673ffffffffffffffffffffffffffffffffffffffff161415611540576000600460006001846113749190612049565b815260200190815260200160002060000154905060006004600083815260200190815260200160002090508060405180610120016040529081600082015481526020016001820160009054906101000a900473ffffffffffffffffffffffffffffffffffffffff1673ffffffffffffffffffffffffffffffffffffffff1673ffffffffffffffffffffffffffffffffffffffff168152602001600282015481526020016003820160009054906101000a900473ffffffffffffffffffffffffffffffffffffffff1673ffffffffffffffffffffffffffffffffffffffff1673ffffffffffffffffffffffffffffffffffffffff1681526020016004820160009054906101000a900473ffffffffffffffffffffffffffffffffffffffff1673ffffffffffffffffffffffffffffffffffffffff1673ffffffffffffffffffffffffffffffffffffffff168152602001600582015481526020016006820154815260200160078201548152602001600882015481525050848681518110611523577f4e487b7100000000000000000000000000000000000000000000000000000000600052603260045260246000fd5b602002602001018190525060018561153b9190612049565b945050505b808061154b90612121565b9150506112e3565b5080945050505050919050565b600260005414156115a6576040517f08c379a000000000000000000000000000000000000000000000000000000000815260040161159d90611fc3565b60405180910390fd5b60026000819055506115b86001611ad1565b60006115c46001611ac3565b90506040518061012001604052808281526020018873ffffffffffffffffffffffffffffffffffffffff1681526020018781526020013373ffffffffffffffffffffffffffffffffffffffff168152602001600073ffffffffffffffffffffffffffffffffffffffff16815260200186815260200185815260200184815260200183815250600460008381526020019081526020016000206000820151816000015560208201518160010160006101000a81548173ffffffffffffffffffffffffffffffffffffffff021916908373ffffffffffffffffffffffffffffffffffffffff1602179055506040820151816002015560608201518160030160006101000a81548173ffffffffffffffffffffffffffffffffffffffff021916908373ffffffffffffffffffffffffffffffffffffffff16021790555060808201518160040160006101000a81548173ffffffffffffffffffffffffffffffffffffffff021916908373ffffffffffffffffffffffffffffffffffffffff16021790555060a0820151816005015560c0820151816006015560e082015181600701556101008201518160080155905050858773ffffffffffffffffffffffffffffffffffffffff16827fa81a7b03f5bd0c2d2e14b1fdfef6a195852a3f0c6cd4716e2c5b24614e5c2bd63360008a8a8a8a6040516117c496959493929190611f40565b60405180910390a4506001600081905550505050505050565b60026000541415611823576040517f08c379a000000000000000000000000000000000000000000000000000000000815260040161181a90611fc3565b60405180910390fd5b60026000819055506000600460008381526020019081526020016000206002015490508273ffffffffffffffffffffffffffffffffffffffff166323b872dd6004600085815260200190815260200160002060030160009054906101000a900473ffffffffffffffffffffffffffffffffffffffff1633846040518463ffffffff1660e01b81526004016118b993929190611f09565b600060405180830381600087803b1580156118d357600080fd5b505af11580156118e7573d6000803e3d6000fd5b50505050336004600084815260200190815260200160002060040160006101000a81548173ffffffffffffffffffffffffffffffffffffffff021916908373ffffffffffffffffffffffffffffffffffffffff16021790555061194a6002611ad1565b5060016000819055505050565b61195f611ae7565b6004600083815260200190815260200160002060405180610120016040529081600082015481526020016001820160009054906101000a900473ffffffffffffffffffffffffffffffffffffffff1673ffffffffffffffffffffffffffffffffffffffff1673ffffffffffffffffffffffffffffffffffffffff168152602001600282015481526020016003820160009054906101000a900473ffffffffffffffffffffffffffffffffffffffff1673ffffffffffffffffffffffffffffffffffffffff1673ffffffffffffffffffffffffffffffffffffffff1681526020016004820160009054906101000a900473ffffffffffffffffffffffffffffffffffffffff1673ffffffffffffffffffffffffffffffffffffffff1673ffffffffffffffffffffffffffffffffffffffff1681526020016005820154815260200160068201548152602001600782015481526020016008820154815250509050919050565b600081600001549050919050565b6001816000016000828254019250508190555050565b60405180610120016040528060008152602001600073ffffffffffffffffffffffffffffffffffffffff16815260200160008152602001600073ffffffffffffffffffffffffffffffffffffffff168152602001600073ffffffffffffffffffffffffffffffffffffffff168152602001600081526020016000815260200160008152602001600081525090565b600081359050611b84816121c2565b92915050565b600081359050611b99816121d9565b92915050565b600060208284031215611bb157600080fd5b6000611bbf84828501611b75565b91505092915050565b60008060408385031215611bdb57600080fd5b6000611be985828601611b75565b9250506020611bfa85828601611b8a565b9150509250929050565b60008060008060008060c08789031215611c1d57600080fd5b6000611c2b89828a01611b75565b9650506020611c3c89828a01611b8a565b9550506040611c4d89828a01611b8a565b9450506060611c5e89828a01611b8a565b9350506080611c6f89828a01611b8a565b92505060a0611c8089828a01611b8a565b9150509295509295509295565b600060208284031215611c9f57600080fd5b6000611cad84828501611b8a565b91505092915050565b6000611cc28383611d7d565b6101208301905092915050565b611cd8816120e5565b82525050565b611ce7816120d3565b82525050565b611cf6816120d3565b82525050565b6000611d078261200f565b611d118185612027565b9350611d1c83611fff565b8060005b83811015611d4d578151611d348882611cb6565b9750611d3f8361201a565b925050600181019050611d20565b5085935050505092915050565b6000611d67601f83612038565b9150611d7282612199565b602082019050919050565b61012082016000820151611d946000850182611eeb565b506020820151611da76020850182611cde565b506040820151611dba6040850182611eeb565b506060820151611dcd6060850182611ccf565b506080820151611de06080850182611ccf565b5060a0820151611df360a0850182611eeb565b5060c0820151611e0660c0850182611eeb565b5060e0820151611e1960e0850182611eeb565b50610100820151611e2e610100850182611eeb565b50505050565b61012082016000820151611e4b6000850182611eeb565b506020820151611e5e6020850182611cde565b506040820151611e716040850182611eeb565b506060820151611e846060850182611ccf565b506080820151611e976080850182611ccf565b5060a0820151611eaa60a0850182611eeb565b5060c0820151611ebd60c0850182611eeb565b5060e0820151611ed060e0850182611eeb565b50610100820151611ee5610100850182611eeb565b50505050565b611ef481612117565b82525050565b611f0381612117565b82525050565b6000606082019050611f1e6000830186611ced565b611f2b6020830185611ced565b611f386040830184611efa565b949350505050565b600060c082019050611f556000830189611ced565b611f626020830188611ced565b611f6f6040830187611efa565b611f7c6060830186611efa565b611f896080830185611efa565b611f9660a0830184611efa565b979650505050505050565b60006020820190508181036000830152611fbb8184611cfc565b905092915050565b60006020820190508181036000830152611fdc81611d5a565b9050919050565b600061012082019050611ff96000830184611e34565b92915050565b6000819050602082019050919050565b600081519050919050565b6000602082019050919050565b600082825260208201905092915050565b600082825260208201905092915050565b600061205482612117565b915061205f83612117565b9250827fffffffffffffffffffffffffffffffffffffffffffffffffffffffffffffffff038211156120945761209361216a565b5b828201905092915050565b60006120aa82612117565b91506120b583612117565b9250828210156120c8576120c761216a565b5b828203905092915050565b60006120de826120f7565b9050919050565b60006120f0826120f7565b9050919050565b600073ffffffffffffffffffffffffffffffffffffffff82169050919050565b6000819050919050565b600061212c82612117565b91507fffffffffffffffffffffffffffffffffffffffffffffffffffffffffffffffff82141561215f5761215e61216a565b5b600182019050919050565b7f4e487b7100000000000000000000000000000000000000000000000000000000600052601160045260246000fd5b7f5265656e7472616e637947756172643a207265656e7472616e742063616c6c00600082015250565b6121cb816120d3565b81146121d657600080fd5b50565b6121e281612117565b81146121ed57600080fd5b5056fea2646970667358221220a8217b8c11e6ff8ea3816b55e79a65bac28505bae3f4df46d0f3dd1aba180c7864736f6c63430008040033",
  "linkReferences": {},
  "deployedLinkReferences": {}
}