{
  "_format": "hh-sol-artifact-1",
  "contractName": "NFTMarket",
  "sourceName": "contracts/NFTMarket.sol",
  "abi": [
    {
      "inputs": [],
      "stateMutability": "nonpayable",
      "type": "constructor"
    },
    {
      "anonymous": false,
      "inputs": [
        {
          "indexed": true,
          "internalType": "uint256",
          "name": "itemId",
          "type": "uint256"
        },
        {
          "indexed": true,
          "internalType": "address",
          "name": "nftContract",
          "type": "address"
        },
        {
          "indexed": true,
          "internalType": "uint256",
          "name": "tokenId",
          "type": "uint256"
        },
        {
          "indexed": false,
          "internalType": "address",
          "name": "seller",
          "type": "address"
        },
        {
          "indexed": false,
          "internalType": "address",
          "name": "owner",
          "type": "address"
        }
      ],
      "name": "MarketItemCreated",
      "type": "event"
    },
    {
      "inputs": [
        {
          "internalType": "address",
          "name": "nftContract",
          "type": "address"
        },
        {
          "internalType": "uint256",
          "name": "tokenId",
          "type": "uint256"
        }
      ],
      "name": "createMarketItem",
      "outputs": [],
      "stateMutability": "nonpayable",
      "type": "function"
    },
    {
      "inputs": [
        {
          "internalType": "address",
          "name": "nftContract",
          "type": "address"
        },
        {
          "internalType": "uint256",
          "name": "itemId",
          "type": "uint256"
        }
      ],
      "name": "createMarketSale",
      "outputs": [],
      "stateMutability": "nonpayable",
      "type": "function"
    },
    {
      "inputs": [],
      "name": "fetchCreateNFTs",
      "outputs": [
        {
          "components": [
            {
              "internalType": "uint256",
              "name": "itemId",
              "type": "uint256"
            },
            {
              "internalType": "address",
              "name": "nftContract",
              "type": "address"
            },
            {
              "internalType": "uint256",
              "name": "tokenId",
              "type": "uint256"
            },
            {
              "internalType": "address payable",
              "name": "seller",
              "type": "address"
            },
            {
              "internalType": "address payable",
              "name": "owner",
              "type": "address"
            }
          ],
          "internalType": "struct NFTMarket.MarketItem[]",
          "name": "",
          "type": "tuple[]"
        }
      ],
      "stateMutability": "view",
      "type": "function"
    },
    {
      "inputs": [
        {
          "internalType": "uint256",
          "name": "itemId",
          "type": "uint256"
        }
      ],
      "name": "fetchMarketItem",
      "outputs": [
        {
          "components": [
            {
              "internalType": "uint256",
              "name": "itemId",
              "type": "uint256"
            },
            {
              "internalType": "address",
              "name": "nftContract",
              "type": "address"
            },
            {
              "internalType": "uint256",
              "name": "tokenId",
              "type": "uint256"
            },
            {
              "internalType": "address payable",
              "name": "seller",
              "type": "address"
            },
            {
              "internalType": "address payable",
              "name": "owner",
              "type": "address"
            }
          ],
          "internalType": "struct NFTMarket.MarketItem",
          "name": "",
          "type": "tuple"
        }
      ],
      "stateMutability": "view",
      "type": "function"
    },
    {
      "inputs": [],
      "name": "fetchMarketItems",
      "outputs": [
        {
          "components": [
            {
              "internalType": "uint256",
              "name": "itemId",
              "type": "uint256"
            },
            {
              "internalType": "address",
              "name": "nftContract",
              "type": "address"
            },
            {
              "internalType": "uint256",
              "name": "tokenId",
              "type": "uint256"
            },
            {
              "internalType": "address payable",
              "name": "seller",
              "type": "address"
            },
            {
              "internalType": "address payable",
              "name": "owner",
              "type": "address"
            }
          ],
          "internalType": "struct NFTMarket.MarketItem[]",
          "name": "",
          "type": "tuple[]"
        }
      ],
      "stateMutability": "view",
      "type": "function"
    },
    {
      "inputs": [],
      "name": "fetchMyNFTs",
      "outputs": [
        {
          "components": [
            {
              "internalType": "uint256",
              "name": "itemId",
              "type": "uint256"
            },
            {
              "internalType": "address",
              "name": "nftContract",
              "type": "address"
            },
            {
              "internalType": "uint256",
              "name": "tokenId",
              "type": "uint256"
            },
            {
              "internalType": "address payable",
              "name": "seller",
              "type": "address"
            },
            {
              "internalType": "address payable",
              "name": "owner",
              "type": "address"
            }
          ],
          "internalType": "struct NFTMarket.MarketItem[]",
          "name": "",
          "type": "tuple[]"
        }
      ],
      "stateMutability": "view",
      "type": "function"
    },
    {
      "inputs": [
        {
          "internalType": "address",
          "name": "sellerAddress",
          "type": "address"
        }
      ],
      "name": "fetchSellerNFTs",
      "outputs": [
        {
          "components": [
            {
              "internalType": "uint256",
              "name": "itemId",
              "type": "uint256"
            },
            {
              "internalType": "address",
              "name": "nftContract",
              "type": "address"
            },
            {
              "internalType": "uint256",
              "name": "tokenId",
              "type": "uint256"
            },
            {
              "internalType": "address payable",
              "name": "seller",
              "type": "address"
            },
            {
              "internalType": "address payable",
              "name": "owner",
              "type": "address"
            }
          ],
          "internalType": "struct NFTMarket.MarketItem[]",
          "name": "",
          "type": "tuple[]"
        }
      ],
      "stateMutability": "view",
      "type": "function"
    },
    {
      "inputs": [
        {
          "internalType": "address",
          "name": "sellerAddress",
          "type": "address"
        }
      ],
      "name": "fetchSellersCreateNFTs",
      "outputs": [
        {
          "components": [
            {
              "internalType": "uint256",
              "name": "itemId",
              "type": "uint256"
            },
            {
              "internalType": "address",
              "name": "nftContract",
              "type": "address"
            },
            {
              "internalType": "uint256",
              "name": "tokenId",
              "type": "uint256"
            },
            {
              "internalType": "address payable",
              "name": "seller",
              "type": "address"
            },
            {
              "internalType": "address payable",
              "name": "owner",
              "type": "address"
            }
          ],
          "internalType": "struct NFTMarket.MarketItem[]",
          "name": "",
          "type": "tuple[]"
        }
      ],
      "stateMutability": "view",
      "type": "function"
    },
    {
      "inputs": [
        {
          "internalType": "uint256",
          "name": "marketItemId",
          "type": "uint256"
        }
      ],
      "name": "getMarketItem",
      "outputs": [
        {
          "components": [
            {
              "internalType": "uint256",
              "name": "itemId",
              "type": "uint256"
            },
            {
              "internalType": "address",
              "name": "nftContract",
              "type": "address"
            },
            {
              "internalType": "uint256",
              "name": "tokenId",
              "type": "uint256"
            },
            {
              "internalType": "address payable",
              "name": "seller",
              "type": "address"
            },
            {
              "internalType": "address payable",
              "name": "owner",
              "type": "address"
            }
          ],
          "internalType": "struct NFTMarket.MarketItem",
          "name": "",
          "type": "tuple"
        }
      ],
      "stateMutability": "view",
      "type": "function"
    }
  ],
  "bytecode": "0x608060405234801561001057600080fd5b50600160008190555033600360006101000a81548173ffffffffffffffffffffffffffffffffffffffff021916908373ffffffffffffffffffffffffffffffffffffffff160217905550611f3b806100696000396000f3fe608060405234801561001057600080fd5b50600436106100935760003560e01c80637cbad146116100665780637cbad146146101345780639b1939bd14610152578063c23b139e14610182578063c7be7a491461019e578063dd5f8518146101ce57610093565b80630f08efe014610098578063202e3740146100b65780632a45b250146100d45780633c271a3614610104575b600080fd5b6100a06101ea565b6040516100ad9190611cb7565b60405180910390f35b6100be6104f1565b6040516100cb9190611cb7565b60405180910390f35b6100ee60048036038101906100e99190611a7a565b61087c565b6040516100fb9190611cf9565b60405180910390f35b61011e60048036038101906101199190611a15565b6109c5565b60405161012b9190611cb7565b60405180910390f35b61013c610d52565b6040516101499190611cb7565b60405180910390f35b61016c60048036038101906101679190611a15565b6110dd565b6040516101799190611cb7565b60405180910390f35b61019c60048036038101906101979190611a3e565b61146a565b005b6101b860048036038101906101b39190611a7a565b6115e4565b6040516101c59190611cf9565b60405180910390f35b6101e860048036038101906101e39190611a3e565b611727565b005b606060006101f86001611956565b905060006102066002611956565b6102106001611956565b61021a9190611db4565b90506000808267ffffffffffffffff81111561025f577f4e487b7100000000000000000000000000000000000000000000000000000000600052604160045260246000fd5b60405190808252806020026020018201604052801561029857816020015b61028561197a565b81526020019060019003908161027d5790505b50905060005b848110156104e657600073ffffffffffffffffffffffffffffffffffffffff16600460006001846102cf9190611d5e565b815260200190815260200160002060040160009054906101000a900473ffffffffffffffffffffffffffffffffffffffff1673ffffffffffffffffffffffffffffffffffffffff1614156104d3576000600460006001846103309190611d5e565b81526020019081526020016000206000015490506000600460008381526020019081526020016000209050806040518060a0016040529081600082015481526020016001820160009054906101000a900473ffffffffffffffffffffffffffffffffffffffff1673ffffffffffffffffffffffffffffffffffffffff1673ffffffffffffffffffffffffffffffffffffffff168152602001600282015481526020016003820160009054906101000a900473ffffffffffffffffffffffffffffffffffffffff1673ffffffffffffffffffffffffffffffffffffffff1673ffffffffffffffffffffffffffffffffffffffff1681526020016004820160009054906101000a900473ffffffffffffffffffffffffffffffffffffffff1673ffffffffffffffffffffffffffffffffffffffff1673ffffffffffffffffffffffffffffffffffffffff16815250508486815181106104b6577f4e487b7100000000000000000000000000000000000000000000000000000000600052603260045260246000fd5b60200260200101819052506001856104ce9190611d5e565b945050505b80806104de90611e36565b91505061029e565b508094505050505090565b606060006104ff6001611956565b905060008060005b838110156105a8573373ffffffffffffffffffffffffffffffffffffffff16600460006001846105379190611d5e565b815260200190815260200160002060040160009054906101000a900473ffffffffffffffffffffffffffffffffffffffff1673ffffffffffffffffffffffffffffffffffffffff161415610595576001836105929190611d5e565b92505b80806105a090611e36565b915050610507565b5060008267ffffffffffffffff8111156105eb577f4e487b7100000000000000000000000000000000000000000000000000000000600052604160045260246000fd5b60405190808252806020026020018201604052801561062457816020015b61061161197a565b8152602001906001900390816106095790505b50905060005b84811015610871573373ffffffffffffffffffffffffffffffffffffffff166004600060018461065a9190611d5e565b815260200190815260200160002060040160009054906101000a900473ffffffffffffffffffffffffffffffffffffffff1673ffffffffffffffffffffffffffffffffffffffff16141561085e576000600460006001846106bb9190611d5e565b81526020019081526020016000206000015490506000600460008381526020019081526020016000209050806040518060a0016040529081600082015481526020016001820160009054906101000a900473ffffffffffffffffffffffffffffffffffffffff1673ffffffffffffffffffffffffffffffffffffffff1673ffffffffffffffffffffffffffffffffffffffff168152602001600282015481526020016003820160009054906101000a900473ffffffffffffffffffffffffffffffffffffffff1673ffffffffffffffffffffffffffffffffffffffff1673ffffffffffffffffffffffffffffffffffffffff1681526020016004820160009054906101000a900473ffffffffffffffffffffffffffffffffffffffff1673ffffffffffffffffffffffffffffffffffffffff1673ffffffffffffffffffffffffffffffffffffffff1681525050848681518110610841577f4e487b7100000000000000000000000000000000000000000000000000000000600052603260045260246000fd5b60200260200101819052506001856108599190611d5e565b945050505b808061086990611e36565b91505061062a565b508094505050505090565b61088461197a565b6000600460008481526020019081526020016000206040518060a0016040529081600082015481526020016001820160009054906101000a900473ffffffffffffffffffffffffffffffffffffffff1673ffffffffffffffffffffffffffffffffffffffff1673ffffffffffffffffffffffffffffffffffffffff168152602001600282015481526020016003820160009054906101000a900473ffffffffffffffffffffffffffffffffffffffff1673ffffffffffffffffffffffffffffffffffffffff1673ffffffffffffffffffffffffffffffffffffffff1681526020016004820160009054906101000a900473ffffffffffffffffffffffffffffffffffffffff1673ffffffffffffffffffffffffffffffffffffffff1673ffffffffffffffffffffffffffffffffffffffff1681525050905080915050919050565b606060006109d36001611956565b905060008060005b83811015610a7c578573ffffffffffffffffffffffffffffffffffffffff1660046000600184610a0b9190611d5e565b815260200190815260200160002060040160009054906101000a900473ffffffffffffffffffffffffffffffffffffffff1673ffffffffffffffffffffffffffffffffffffffff161415610a6957600183610a669190611d5e565b92505b8080610a7490611e36565b9150506109db565b5060008267ffffffffffffffff811115610abf577f4e487b7100000000000000000000000000000000000000000000000000000000600052604160045260246000fd5b604051908082528060200260200182016040528015610af857816020015b610ae561197a565b815260200190600190039081610add5790505b50905060005b84811015610d45578673ffffffffffffffffffffffffffffffffffffffff1660046000600184610b2e9190611d5e565b815260200190815260200160002060040160009054906101000a900473ffffffffffffffffffffffffffffffffffffffff1673ffffffffffffffffffffffffffffffffffffffff161415610d3257600060046000600184610b8f9190611d5e565b81526020019081526020016000206000015490506000600460008381526020019081526020016000209050806040518060a0016040529081600082015481526020016001820160009054906101000a900473ffffffffffffffffffffffffffffffffffffffff1673ffffffffffffffffffffffffffffffffffffffff1673ffffffffffffffffffffffffffffffffffffffff168152602001600282015481526020016003820160009054906101000a900473ffffffffffffffffffffffffffffffffffffffff1673ffffffffffffffffffffffffffffffffffffffff1673ffffffffffffffffffffffffffffffffffffffff1681526020016004820160009054906101000a900473ffffffffffffffffffffffffffffffffffffffff1673ffffffffffffffffffffffffffffffffffffffff1673ffffffffffffffffffffffffffffffffffffffff1681525050848681518110610d15577f4e487b7100000000000000000000000000000000000000000000000000000000600052603260045260246000fd5b6020026020010181905250600185610d2d9190611d5e565b945050505b8080610d3d90611e36565b915050610afe565b5080945050505050919050565b60606000610d606001611956565b905060008060005b83811015610e09573373ffffffffffffffffffffffffffffffffffffffff1660046000600184610d989190611d5e565b815260200190815260200160002060030160009054906101000a900473ffffffffffffffffffffffffffffffffffffffff1673ffffffffffffffffffffffffffffffffffffffff161415610df657600183610df39190611d5e565b92505b8080610e0190611e36565b915050610d68565b5060008267ffffffffffffffff811115610e4c577f4e487b7100000000000000000000000000000000000000000000000000000000600052604160045260246000fd5b604051908082528060200260200182016040528015610e8557816020015b610e7261197a565b815260200190600190039081610e6a5790505b50905060005b848110156110d2573373ffffffffffffffffffffffffffffffffffffffff1660046000600184610ebb9190611d5e565b815260200190815260200160002060030160009054906101000a900473ffffffffffffffffffffffffffffffffffffffff1673ffffffffffffffffffffffffffffffffffffffff1614156110bf57600060046000600184610f1c9190611d5e565b81526020019081526020016000206000015490506000600460008381526020019081526020016000209050806040518060a0016040529081600082015481526020016001820160009054906101000a900473ffffffffffffffffffffffffffffffffffffffff1673ffffffffffffffffffffffffffffffffffffffff1673ffffffffffffffffffffffffffffffffffffffff168152602001600282015481526020016003820160009054906101000a900473ffffffffffffffffffffffffffffffffffffffff1673ffffffffffffffffffffffffffffffffffffffff1673ffffffffffffffffffffffffffffffffffffffff1681526020016004820160009054906101000a900473ffffffffffffffffffffffffffffffffffffffff1673ffffffffffffffffffffffffffffffffffffffff1673ffffffffffffffffffffffffffffffffffffffff16815250508486815181106110a2577f4e487b7100000000000000000000000000000000000000000000000000000000600052603260045260246000fd5b60200260200101819052506001856110ba9190611d5e565b945050505b80806110ca90611e36565b915050610e8b565b508094505050505090565b606060006110eb6001611956565b905060008060005b83811015611194578573ffffffffffffffffffffffffffffffffffffffff16600460006001846111239190611d5e565b815260200190815260200160002060030160009054906101000a900473ffffffffffffffffffffffffffffffffffffffff1673ffffffffffffffffffffffffffffffffffffffff1614156111815760018361117e9190611d5e565b92505b808061118c90611e36565b9150506110f3565b5060008267ffffffffffffffff8111156111d7577f4e487b7100000000000000000000000000000000000000000000000000000000600052604160045260246000fd5b60405190808252806020026020018201604052801561121057816020015b6111fd61197a565b8152602001906001900390816111f55790505b50905060005b8481101561145d578673ffffffffffffffffffffffffffffffffffffffff16600460006001846112469190611d5e565b815260200190815260200160002060030160009054906101000a900473ffffffffffffffffffffffffffffffffffffffff1673ffffffffffffffffffffffffffffffffffffffff16141561144a576000600460006001846112a79190611d5e565b81526020019081526020016000206000015490506000600460008381526020019081526020016000209050806040518060a0016040529081600082015481526020016001820160009054906101000a900473ffffffffffffffffffffffffffffffffffffffff1673ffffffffffffffffffffffffffffffffffffffff1673ffffffffffffffffffffffffffffffffffffffff168152602001600282015481526020016003820160009054906101000a900473ffffffffffffffffffffffffffffffffffffffff1673ffffffffffffffffffffffffffffffffffffffff1673ffffffffffffffffffffffffffffffffffffffff1681526020016004820160009054906101000a900473ffffffffffffffffffffffffffffffffffffffff1673ffffffffffffffffffffffffffffffffffffffff1673ffffffffffffffffffffffffffffffffffffffff168152505084868151811061142d577f4e487b7100000000000000000000000000000000000000000000000000000000600052603260045260246000fd5b60200260200101819052506001856114459190611d5e565b945050505b808061145590611e36565b915050611216565b5080945050505050919050565b600260005414156114b0576040517f08c379a00000000000000000000000000000000000000000000000000000000081526004016114a790611cd9565b60405180910390fd5b60026000819055506000600460008381526020019081526020016000206002015490508273ffffffffffffffffffffffffffffffffffffffff166323b872dd6004600085815260200190815260200160002060030160009054906101000a900473ffffffffffffffffffffffffffffffffffffffff1633846040518463ffffffff1660e01b815260040161154693929190611c80565b600060405180830381600087803b15801561156057600080fd5b505af1158015611574573d6000803e3d6000fd5b50505050336004600084815260200190815260200160002060040160006101000a81548173ffffffffffffffffffffffffffffffffffffffff021916908373ffffffffffffffffffffffffffffffffffffffff1602179055506115d76002611964565b5060016000819055505050565b6115ec61197a565b600460008381526020019081526020016000206040518060a0016040529081600082015481526020016001820160009054906101000a900473ffffffffffffffffffffffffffffffffffffffff1673ffffffffffffffffffffffffffffffffffffffff1673ffffffffffffffffffffffffffffffffffffffff168152602001600282015481526020016003820160009054906101000a900473ffffffffffffffffffffffffffffffffffffffff1673ffffffffffffffffffffffffffffffffffffffff1673ffffffffffffffffffffffffffffffffffffffff1681526020016004820160009054906101000a900473ffffffffffffffffffffffffffffffffffffffff1673ffffffffffffffffffffffffffffffffffffffff1673ffffffffffffffffffffffffffffffffffffffff16815250509050919050565b6002600054141561176d576040517f08c379a000000000000000000000000000000000000000000000000000000000815260040161176490611cd9565b60405180910390fd5b600260008190555061177f6001611964565b600061178b6001611956565b90506040518060a001604052808281526020018473ffffffffffffffffffffffffffffffffffffffff1681526020018381526020013373ffffffffffffffffffffffffffffffffffffffff168152602001600073ffffffffffffffffffffffffffffffffffffffff16815250600460008381526020019081526020016000206000820151816000015560208201518160010160006101000a81548173ffffffffffffffffffffffffffffffffffffffff021916908373ffffffffffffffffffffffffffffffffffffffff1602179055506040820151816002015560608201518160030160006101000a81548173ffffffffffffffffffffffffffffffffffffffff021916908373ffffffffffffffffffffffffffffffffffffffff16021790555060808201518160040160006101000a81548173ffffffffffffffffffffffffffffffffffffffff021916908373ffffffffffffffffffffffffffffffffffffffff160217905550905050818373ffffffffffffffffffffffffffffffffffffffff16827f371f27f6a0fe7819306fc5cf42bd3c289ac445631dcfba5cbb52153df800e946336000604051611941929190611c57565b60405180910390a45060016000819055505050565b600081600001549050919050565b6001816000016000828254019250508190555050565b6040518060a0016040528060008152602001600073ffffffffffffffffffffffffffffffffffffffff16815260200160008152602001600073ffffffffffffffffffffffffffffffffffffffff168152602001600073ffffffffffffffffffffffffffffffffffffffff1681525090565b6000813590506119fa81611ed7565b92915050565b600081359050611a0f81611eee565b92915050565b600060208284031215611a2757600080fd5b6000611a35848285016119eb565b91505092915050565b60008060408385031215611a5157600080fd5b6000611a5f858286016119eb565b9250506020611a7085828601611a00565b9150509250929050565b600060208284031215611a8c57600080fd5b6000611a9a84828501611a00565b91505092915050565b6000611aaf8383611b69565b60a08301905092915050565b611ac481611dfa565b82525050565b611ad381611de8565b82525050565b611ae281611de8565b82525050565b6000611af382611d24565b611afd8185611d3c565b9350611b0883611d14565b8060005b83811015611b39578151611b208882611aa3565b9750611b2b83611d2f565b925050600181019050611b0c565b5085935050505092915050565b6000611b53601f83611d4d565b9150611b5e82611eae565b602082019050919050565b60a082016000820151611b7f6000850182611c39565b506020820151611b926020850182611aca565b506040820151611ba56040850182611c39565b506060820151611bb86060850182611abb565b506080820151611bcb6080850182611abb565b50505050565b60a082016000820151611be76000850182611c39565b506020820151611bfa6020850182611aca565b506040820151611c0d6040850182611c39565b506060820151611c206060850182611abb565b506080820151611c336080850182611abb565b50505050565b611c4281611e2c565b82525050565b611c5181611e2c565b82525050565b6000604082019050611c6c6000830185611ad9565b611c796020830184611ad9565b9392505050565b6000606082019050611c956000830186611ad9565b611ca26020830185611ad9565b611caf6040830184611c48565b949350505050565b60006020820190508181036000830152611cd18184611ae8565b905092915050565b60006020820190508181036000830152611cf281611b46565b9050919050565b600060a082019050611d0e6000830184611bd1565b92915050565b6000819050602082019050919050565b600081519050919050565b6000602082019050919050565b600082825260208201905092915050565b600082825260208201905092915050565b6000611d6982611e2c565b9150611d7483611e2c565b9250827fffffffffffffffffffffffffffffffffffffffffffffffffffffffffffffffff03821115611da957611da8611e7f565b5b828201905092915050565b6000611dbf82611e2c565b9150611dca83611e2c565b925082821015611ddd57611ddc611e7f565b5b828203905092915050565b6000611df382611e0c565b9050919050565b6000611e0582611e0c565b9050919050565b600073ffffffffffffffffffffffffffffffffffffffff82169050919050565b6000819050919050565b6000611e4182611e2c565b91507fffffffffffffffffffffffffffffffffffffffffffffffffffffffffffffffff821415611e7457611e73611e7f565b5b600182019050919050565b7f4e487b7100000000000000000000000000000000000000000000000000000000600052601160045260246000fd5b7f5265656e7472616e637947756172643a207265656e7472616e742063616c6c00600082015250565b611ee081611de8565b8114611eeb57600080fd5b50565b611ef781611e2c565b8114611f0257600080fd5b5056fea26469706673582212209d742e20203b2f6810066f208e3829cace742d555736b5d2ffa2695c3027b8c964736f6c63430008040033",
  "linkReferences": {},
  "deployedLinkReferences": {}
}