{
  "_format": "hh-sol-artifact-1",
  "contractName": "Rent",
  "sourceName": "contracts/Rent.sol",
  "abi": [
    {
      "inputs": [
        {
          "internalType": "address payable",
          "name": "_owner",
          "type": "address"
        },
        {
          "internalType": "contract ERC721Wrapper",
          "name": "_wrappedToken",
          "type": "address"
        },
        {
          "internalType": "uint256",
          "name": "_tokenId",
          "type": "uint256"
        },
        {
          "internalType": "uint256",
          "name": "_rentingAmount",
          "type": "uint256"
        },
        {
          "internalType": "uint256",
          "name": "_startTime",
          "type": "uint256"
        },
        {
          "internalType": "uint256",
          "name": "_expirationTime",
          "type": "uint256"
        }
      ],
      "stateMutability": "nonpayable",
      "type": "constructor"
    },
    {
      "inputs": [],
      "name": "active",
      "outputs": [
        {
          "internalType": "bool",
          "name": "",
          "type": "bool"
        }
      ],
      "stateMutability": "view",
      "type": "function"
    },
    {
      "inputs": [],
      "name": "expirationTime",
      "outputs": [
        {
          "internalType": "uint256",
          "name": "",
          "type": "uint256"
        }
      ],
      "stateMutability": "view",
      "type": "function"
    },
    {
      "inputs": [],
      "name": "getContractBalance",
      "outputs": [
        {
          "internalType": "uint256",
          "name": "",
          "type": "uint256"
        }
      ],
      "stateMutability": "view",
      "type": "function"
    },
    {
      "inputs": [],
      "name": "owner",
      "outputs": [
        {
          "internalType": "address payable",
          "name": "",
          "type": "address"
        }
      ],
      "stateMutability": "view",
      "type": "function"
    },
    {
      "inputs": [
        {
          "internalType": "address payable",
          "name": "_renter",
          "type": "address"
        },
        {
          "internalType": "uint256",
          "name": "_rentingAmount",
          "type": "uint256"
        }
      ],
      "name": "rentToken",
      "outputs": [],
      "stateMutability": "payable",
      "type": "function"
    },
    {
      "inputs": [],
      "name": "renter",
      "outputs": [
        {
          "internalType": "address payable",
          "name": "",
          "type": "address"
        }
      ],
      "stateMutability": "view",
      "type": "function"
    },
    {
      "inputs": [],
      "name": "rentingAmount",
      "outputs": [
        {
          "internalType": "uint256",
          "name": "",
          "type": "uint256"
        }
      ],
      "stateMutability": "view",
      "type": "function"
    },
    {
      "inputs": [],
      "name": "startTime",
      "outputs": [
        {
          "internalType": "uint256",
          "name": "",
          "type": "uint256"
        }
      ],
      "stateMutability": "view",
      "type": "function"
    },
    {
      "inputs": [],
      "name": "tokenId",
      "outputs": [
        {
          "internalType": "uint256",
          "name": "",
          "type": "uint256"
        }
      ],
      "stateMutability": "view",
      "type": "function"
    },
    {
      "inputs": [],
      "name": "withdrawToken",
      "outputs": [],
      "stateMutability": "nonpayable",
      "type": "function"
    },
    {
      "inputs": [],
      "name": "wrappedToken",
      "outputs": [
        {
          "internalType": "contract ERC721Wrapper",
          "name": "",
          "type": "address"
        }
      ],
      "stateMutability": "view",
      "type": "function"
    }
  ],
  "bytecode": "0x60806040526000600560006101000a81548160ff0219169083151502179055503480156200002c57600080fd5b5060405162000e5b38038062000e5b833981810160405281019062000052919062000140565b856000806101000a81548173ffffffffffffffffffffffffffffffffffffffff021916908373ffffffffffffffffffffffffffffffffffffffff16021790555083600381905550816006819055508060078190555084600260006101000a81548173ffffffffffffffffffffffffffffffffffffffff021916908373ffffffffffffffffffffffffffffffffffffffff160217905550826004819055505050505050506200028a565b6000815190506200010c816200023c565b92915050565b600081519050620001238162000256565b92915050565b6000815190506200013a8162000270565b92915050565b60008060008060008060c087890312156200015a57600080fd5b60006200016a89828a01620000fb565b96505060206200017d89828a0162000112565b95505060406200019089828a0162000129565b9450506060620001a389828a0162000129565b9350506080620001b689828a0162000129565b92505060a0620001c989828a0162000129565b9150509295509295509295565b6000620001e38262000212565b9050919050565b6000620001f78262000212565b9050919050565b60006200020b82620001d6565b9050919050565b600073ffffffffffffffffffffffffffffffffffffffff82169050919050565b6000819050919050565b6200024781620001ea565b81146200025357600080fd5b50565b6200026181620001fe565b81146200026d57600080fd5b50565b6200027b8162000232565b81146200028757600080fd5b50565b610bc1806200029a6000396000f3fe60806040526004361061009c5760003560e01c806378e979251161006457806378e97925146101695780638da5cb5b14610194578063996c6cc3146101bf578063ca628c78146101ea578063cbfcce3614610201578063da284dcc1461022c5761009c565b806302fb0c5e146100a157806303414463146100cc57806317d70f7c146100e85780632e88ab0b146101135780636f9fb98a1461013e575b600080fd5b3480156100ad57600080fd5b506100b6610257565b6040516100c39190610864565b60405180910390f35b6100e660048036038101906100e19190610713565b61026a565b005b3480156100f457600080fd5b506100fd6104d5565b60405161010a919061093a565b60405180910390f35b34801561011f57600080fd5b506101286104db565b6040516101359190610849565b60405180910390f35b34801561014a57600080fd5b50610153610501565b604051610160919061093a565b60405180910390f35b34801561017557600080fd5b5061017e610509565b60405161018b919061093a565b60405180910390f35b3480156101a057600080fd5b506101a961050f565b6040516101b69190610849565b60405180910390f35b3480156101cb57600080fd5b506101d4610533565b6040516101e1919061087f565b60405180910390f35b3480156101f657600080fd5b506101ff610559565b005b34801561020d57600080fd5b506102166106dd565b604051610223919061093a565b60405180910390f35b34801561023857600080fd5b506102416106e3565b60405161024e919061093a565b60405180910390f35b600560009054906101000a900460ff1681565b60008054906101000a900473ffffffffffffffffffffffffffffffffffffffff1673ffffffffffffffffffffffffffffffffffffffff163373ffffffffffffffffffffffffffffffffffffffff1614156102f9576040517f08c379a00000000000000000000000000000000000000000000000000000000081526004016102f0906108da565b60405180910390fd5b600654421161033d576040517f08c379a0000000000000000000000000000000000000000000000000000000008152600401610334906108fa565b60405180910390fd5b80471015610380576040517f08c379a0000000000000000000000000000000000000000000000000000000008152600401610377906108ba565b60405180910390fd5b81600160006101000a81548173ffffffffffffffffffffffffffffffffffffffff021916908373ffffffffffffffffffffffffffffffffffffffff1602179055508060048190555060008054906101000a900473ffffffffffffffffffffffffffffffffffffffff1673ffffffffffffffffffffffffffffffffffffffff166108fc829081150290604051600060405180830381858888f1935050505050600260009054906101000a900473ffffffffffffffffffffffffffffffffffffffff1673ffffffffffffffffffffffffffffffffffffffff16632e2d298460035460008054906101000a900473ffffffffffffffffffffffffffffffffffffffff16856040518463ffffffff1660e01b815260040161049f9392919061097e565b600060405180830381600087803b1580156104b957600080fd5b505af11580156104cd573d6000803e3d6000fd5b505050505050565b60035481565b600160009054906101000a900473ffffffffffffffffffffffffffffffffffffffff1681565b600047905090565b60065481565b60008054906101000a900473ffffffffffffffffffffffffffffffffffffffff1681565b600260009054906101000a900473ffffffffffffffffffffffffffffffffffffffff1681565b60008054906101000a900473ffffffffffffffffffffffffffffffffffffffff1673ffffffffffffffffffffffffffffffffffffffff163373ffffffffffffffffffffffffffffffffffffffff16146105e7576040517f08c379a00000000000000000000000000000000000000000000000000000000081526004016105de9061089a565b60405180910390fd5b600754421161062b576040517f08c379a00000000000000000000000000000000000000000000000000000000081526004016106229061091a565b60405180910390fd5b600260009054906101000a900473ffffffffffffffffffffffffffffffffffffffff1673ffffffffffffffffffffffffffffffffffffffff1662f714ce60035460008054906101000a900473ffffffffffffffffffffffffffffffffffffffff166040518363ffffffff1660e01b81526004016106a9929190610955565b600060405180830381600087803b1580156106c357600080fd5b505af11580156106d7573d6000803e3d6000fd5b50505050565b60045481565b60075481565b6000813590506106f881610b5d565b92915050565b60008135905061070d81610b74565b92915050565b6000806040838503121561072657600080fd5b6000610734858286016106e9565b9250506020610745858286016106fe565b9150509250929050565b610758816109d8565b82525050565b610767816109c6565b82525050565b610776816109ea565b82525050565b61078581610a20565b82525050565b60006107986026836109b5565b91506107a382610a44565b604082019050919050565b60006107bb6013836109b5565b91506107c682610a93565b602082019050919050565b60006107de6017836109b5565b91506107e982610abc565b602082019050919050565b60006108016028836109b5565b915061080c82610ae5565b604082019050919050565b6000610824601c836109b5565b915061082f82610b34565b602082019050919050565b61084381610a16565b82525050565b600060208201905061085e600083018461074f565b92915050565b6000602082019050610879600083018461076d565b92915050565b6000602082019050610894600083018461077c565b92915050565b600060208201905081810360008301526108b38161078b565b9050919050565b600060208201905081810360008301526108d3816107ae565b9050919050565b600060208201905081810360008301526108f3816107d1565b9050919050565b60006020820190508181036000830152610913816107f4565b9050919050565b6000602082019050818103600083015261093381610817565b9050919050565b600060208201905061094f600083018461083a565b92915050565b600060408201905061096a600083018561083a565b610977602083018461075e565b9392505050565b6000606082019050610993600083018661083a565b6109a0602083018561075e565b6109ad604083018461075e565b949350505050565b600082825260208201905092915050565b60006109d1826109f6565b9050919050565b60006109e3826109f6565b9050919050565b60008115159050919050565b600073ffffffffffffffffffffffffffffffffffffffff82169050919050565b6000819050919050565b6000610a2b82610a32565b9050919050565b6000610a3d826109f6565b9050919050565b7f4f6e6c7920746865206f776e65722063616e2063616c6c20746869732066756e60008201527f6374696f6e2e0000000000000000000000000000000000000000000000000000602082015250565b7f4e6f7420656e6f7567682062616c616e63652100000000000000000000000000600082015250565b7f4f776e65722063616e206e6f742072656e74204e465421000000000000000000600082015250565b7f52656e74696e6720666f722074686973204e4654206973206e6f74207374617260008201527f7465642079657421000000000000000000000000000000000000000000000000602082015250565b7f436f6e7472616374206973206e6f742065787069726564207965742100000000600082015250565b610b66816109d8565b8114610b7157600080fd5b50565b610b7d81610a16565b8114610b8857600080fd5b5056fea264697066735822122020fc7d79835a35fdc2932b83eec3b149682373bbca167d3952e9987a6abdd3a764736f6c63430008040033",
  "linkReferences": {},
  "deployedLinkReferences": {}
}